:020000040800F2
:10000000D8930020CD0100084707000835060008F6
:1000100085060008D1040008B14A0008000000006D
:10002000000000000000000000000000654900081A
:100030001505000800000000DF0200080D1C000884
:10004000E7010008E7010008E7010008E7010008F0
:10005000E7010008E7010008E7010008E7010008E0
:10006000E7010008E7010008E7010008E7010008D0
:10007000E7010008E7010008E7010008E7010008C0
:10008000E7010008E7010008E7010008E7010008B0
:10009000E7010008E7010008E7010008E7010008A0
:1000A000E7010008E7010008E7010008E701000890
:1000B000E7010008E7010008E7010008E701000880
:1000C000E7010008E7010008E7010008E701000870
:1000D000E7010008E7010008E7010008E701000860
:1000E000E7010008E7010008E7010008E701000850
:1000F000E7010008E7010008E7010008E701000840
:10010000E7010008E7010008E7010008E70100082F
:10011000E7010008E7010008E7010008E70100081F
:10012000E7010008E7010008E7010008E70100080F
:1001300000F002F800F03AF80AA090E8000C8244BF
:100140008344AAF10107DA4501D100F02FF8AFF29C
:10015000090EBAE80F0013F0010F18BFFB1A43F0A5
:10016000010318474C4C00006C4C0000103A24BFAF
:1001700078C878C1FAD8520724BF30C830C144BF0C
:1001800004680C607047000000230024002500264E
:10019000103A28BF78C1FBD8520728BF30C148BFEA
:1001A0000B6070471FB51FBD10B510BD00F04BF8B8
:1001B0001146FFF7F7FF04F0C1FC00F069F803B443
:1001C000FFF7F2FF03BC00F071F800000948804718
:1001D00009480047FEE7FEE7FEE7FEE7FEE7FEE729
:1001E000FEE7FEE7FEE7FEE704480549054A064B41
:1001F00070470000514A000831010008D88D0020E6
:10020000D8930020D88F0020D88F002072B6704776
:1002100062B67047EFF3108072B6704780F31088B3
:10022000704730BF704720BF7047B0FA80F070470A
:1002300090FAA0F0B0FA80F0704790FAA0F0704702
:10024000704770477047754600F02CF8AE460500C1
:100250006946534620F00700854618B020B5FFF7E1
:10026000C3FFBDE820404FF000064FF000074FF0FD
:1002700000084FF0000B21F00701AC46ACE8C009C4
:10028000ACE8C009ACE8C009ACE8C0098D467047CD
:1002900010B50446AFF300802046BDE81040FFF7DC
:1002A0008EBF000000487047748D0020014918205F
:1002B000ABBEFEE7260002007047000018484FF072
:1002C000FF010170002080F309881648016881F35E
:1002D000088815484FF08051016062B6FEE772B69B
:1002E000EFF3098028B1203880E8F00F0F49096842
:1002F000086000B50E4880475DF804EB0D480E49D4
:100300000A78027009480D490A680260106890E88E
:10031000F00F203080F309884EF0040E62B670476B
:1003200022ED00E0D000002004ED00E0C800002035
:10033000411A00086600002067000020CC00002061
:1003400008B56B46002202A1034800F025FC08BD59
:100350004C45442053454D00B41A002000B58BB0E5
:100360000AA8032100220592CDE906210890052064
:1003700040210622124BCDE90132CDE903100720BE
:100380000023104A10A10090124800F0E7FE0AA8CE
:10039000032100220592CDE9062108900520402185
:1003A00006220D4BCDE9013200230092CDE9031066
:1003B0000A4A0BA10D4800F0D1FE0BB000BD0000B1
:1003C0001C1F0020B54A00084C454430205461737E
:1003D0006B0000009C1B00201C200020F54A000838
:1003E0004C454431205461736B0000005C1C0020BC
:1003F000F8B50746002600F06DF800F061F80446F5
:100400002B480068B4FBF0F5284601F01BFC00BF48
:1004100000BF00BFFFF7FEFE064600BF00BF254835
:100420000078401C2349087000BF00BF3046FFF72A
:10043000F5FE00BF00BF00BF00F030F9684600F0D5
:100440000BFEFFF77DFFFFF789FF69461A4801F0B1
:10045000C7FA00BF00BF00BFFFF7DCFE064600BFC3
:1004600000BF14480078401E124908700846007802
:10047000A0B912480088002809DD00BF00BF30463F
:10048000FFF7CCFE00BF00BF02F0CCFC0DE000BFC8
:1004900000BF3046FFF7C2FE00BF06E000BF00BF4E
:1004A0003046FFF7BBFE00BF00BF00BFF8BD000035
:1004B000004C000872000020DC1A002044000020DC
:1004C00000B585B0684604F0E3F9019805B000BDB9
:1004D00000BFFEE710B500F019F810BD10B50024FC
:1004E00000BF00BFFFF796FE044600BF00BF10210B
:1004F000054800F0C9F800BF00BF2046FFF78EFE98
:1005000000BF00BF10BD00001C21002010B5FFF788
:10051000E5FF10BD70472DE9F04102460025002699
:10052000002000230024002791F803C00CF00F05E1
:1005300091F803C00CF0100CBCF1000F03D091F83F
:1005400002C04CEA050591F800C0BCF1000F31D0A3
:10055000146800202BE04FF0010C0CFA00F3B1F806
:1005600000C00CEA03069E4220D183004FF00F0C1E
:100570000CFA03F7BC4305FA03FC4CEA040491F8B7
:1005800003C0BCF1280F06D14FF0010C0CFA00FC9F
:10059000C2F814C00AE091F803C0BCF1480F05D1BD
:1005A0004FF0010C0CFA00FCC2F810C0401C0828E7
:1005B000D1D31460B1F800C0BCF1FF0F34DD546832
:1005C00000202EE000F1080C4FF0010808FA0CF3AF
:1005D000B1F800C00CEA03069E4221D183004FF01F
:1005E0000F0C0CFA03F7BC4305FA03FC4CEA0404B5
:1005F00091F803C0BCF1280F05D100F1080C08FAEE
:100600000CF8C2F8148091F803C0BCF1480F07D170
:1006100000F1080C4FF0010808FA0CF8C2F810803D
:10062000401C0828CED35460BDE8F081416170477A
:100630000161704700BFFEE708B50121482004F0C2
:1006400017F92020ADF8000010208DF803000320DA
:100650008DF8020069460948FFF75DFF2021074831
:10066000FFF7E6FF2020ADF8000069460448FFF7D9
:1006700052FF20210248FFF7DBFF08BD000C0140BC
:100680000018014000BFFEE730B505460C46224683
:100690000021284600F026F830BD00000D480E4924
:1006A00001600146416000218160C16001614161DA
:1006B0008161C16101620163C16241620749816375
:1006C000C1634FF4D841016441640146044A11609A
:1006D000704700002C210020484541507421002023
:1006E000D40000202DE9F04103460C4617460FB90F
:1006F000BDE8F08103B9FBE70025002202E02D02EE
:100700002543521C042AFAD3384603F0030C194639
:10071000BCF1000F08D0624603E001F8014B401E17
:10072000521C08B1042AF8D30E4601E020C6001F6F
:100730000428FBD2314602E001F8014B401E00289C
:10074000FAD100BFD4E770477047000010B50348E6
:10075000006810B101480068804710BD24000020E7
:1007600070B5044600F0B6F80020454908704549C8
:100770000870454908704549086045490860454981
:100780000870454908704549087045490870454852
:1007900000680A21B0FBF1F0434908604348006853
:1007A00058B14348056845B14048066803E0761EE5
:1007B000002028602D1D002EF9D100203D49086041
:1007C0003D4908603D4908603D4908603D49086071
:1007D0003D4908603D4908603D49087002F08AF9CA
:1007E00002F06AFA204601F01FFB208800B170BDBC
:1007F000204601F0FBFE208800B1F8E7204601F01A
:1008000001FF208800B1F2E7204601F0E5FF2088D3
:1008100000B1ECE7204602F09DF9208800B1E6E740
:10082000204602F0ADFB208800B1E0E7204602F050
:10083000CBFE208800B1DAE7204601F043FE208895
:1008400000B1D4E7204601F061FC208800B1CEE77A
:10085000204603F01FFE208800B1C8E7204602F0C2
:10086000F7FD208800B1C2E7204603F06FFE208824
:1008700000B1BCE701F0FEF9FFF766FF00BFB6E785
:10088000380000203900002072000020C80000203D
:10089000CC000020660000206700002068000020D7
:1008A00078000020004C000874000020D04B0008A5
:1008B000CC4B0008180000201C0000202000002065
:1008C00024000020280000202C0000203000002000
:1008D000A60000200A4A1168002002E0002204C19C
:1008E000401C084A12689042F8D3054A1268054B2A
:1008F0001B6802EB8302121F034B1A607047000053
:10090000CC4B0008D04B0008D000002010B50024CC
:100910002E480078012800D010BD00BFFFF77AFCF8
:10092000044600BF2A48007828B900BF2046FFF7D8
:1009300075FC00BFF0E726480078401E2449087087
:1009400008460078002805DD00BF2046FFF766FC5A
:1009500000BFE1E71F480078002805DD00BF204602
:10096000FFF75CFC00BFD7E702F0B0F81A49087047
:100970000846007800EB4000184951F8200018495B
:1009800008600846006817490968884205D100BF19
:100990002046FFF743FC00BFBEE711480068D0F8CF
:1009A0009000401C0E490968C1F890000E4800688C
:1009B000401C0D4908604FF080500C49086000BF92
:1009C0002046FFF72BFC00BF00BFA5E73900002041
:1009D000380000207200002067000020F41600207C
:1009E000CC000020C80000209C00002004ED00E0A6
:1009F00010B5002420480078002800DD10BD1F48F5
:100A00000078002800DDF9E700BFFFF703FC04468B
:100A100000BF02F05BF81A4908700846007800EB46
:100A20004000184951F8200017490860084600683E
:100A300016490968884205D100BF2046FFF7EEFB42
:100A400000BFDBE710480068D0F89000401C0E495A
:100A50000968C1F890000E480068401C0C49086005
:100A60004FF080500B49086000BF2046FFF7D6FBCF
:100A700000BF00BFC2E70000380000207200002065
:100A800067000020F4160020CC000020C8000020E1
:100A90009C00002004ED00E070B5044600251748D6
:100AA0000078002803DD46F66250208070BD1448AF
:100AB0000078012803D045F689602080F6E71148C8
:100AC0000078FA2803DB45F209202080EEE700BF1A
:100AD00000BFFFF79FFB054600BF00BF0948007835
:100AE000401C0849087000BF00BF2846FFF796FB6E
:100AF00000BF00BF0020208000BFD7E738000020E3
:100B0000390000207200002070B5044600251F48FF
:100B10000078002803DD46F66550208070BD1C4833
:100B20000078012803D045F689602080F6E719484F
:100B3000007818B946F664502080EFE700BF00BF88
:100B4000FFF768FB054600BF00BF12480078401E53
:100B5000104908700846007800280ADD00BF00BF71
:100B60002846FFF75BFB00BF00BF46F663502080BE
:100B7000D4E700BF00BF2846FFF750FB00BF00BF0F
:100B8000FFF736FF0020208000BFC7E738000020B5
:100B900039000020720000202DE9F04104460E4685
:100BA00017461D464FF0000826480078002804DD4F
:100BB00042F6E1602880BDE8F0811CB945F6C350DB
:100BC0002880F8E700BF00BF00BFFFF723FB804687
:100BD00000BF00BF1C480078401C1B49087000BFC4
:100BE00000BF4046FFF71AFB00BF00BF00BF174819
:100BF0002060276200206062666004F1080001F056
:100C00007FFE204602F0A4F911480088401C1049DC
:100C1000088000BF00BF00BFFFF7FCFA804600BF9E
:100C200000BF09480078401E0749087000BF00BF98
:100C30004046FFF7F3FA00BF00BF00BF0020288046
:100C400000BFB8E7380000207200002053454D4136
:100C5000800000202DE9F04788B00646894690467E
:100C60001C46109D4FF0000A6E480078002806DDF3
:100C700046F2AE102880002008B0BDE8F08726B903
:100C800045F6C35028800020F6E7B8F1000F03D0E6
:100C9000B8F5004F02D100E000BF04E045F6256042
:100CA00028800020E8E700BF5F493068884204D010
:100CB00045F6C45028800020DEE70CB100202060FB
:100CC00000BF00BFFFF7A6FA824600BF00BF306A30
:100CD00088B1306A401E30620CB1706A2060376A99
:100CE00000BF00BF5046FFF799FA00BF00BF0020C9
:100CF00028803846C0E708F4004060B1376A00BF7A
:100D000000BF5046FFF78AFA00BF00BF46F2B0109E
:100D100028803846B0E74548007800280BDD00BF42
:100D200000BF5046FFF77AFA00BF00BF46F6635097
:100D300028800020A0E700BF3C480078401C3B49C9
:100D4000087000BF00BF5046FFF768FA00BF00BF41
:100D500000BF4B4606223146684601F049FD00BF00
:100D600000BF00BFFFF756FA824600BF00BF2F4802
:100D70000078401E2D49087000BF00BF5046FFF7A5
:100D80004DFA00BF00BF00BFFFF732FE00BF00BF3B
:100D9000FFF740FA824600BF00BF2548006890F880
:100DA000350030B101280CD002281AD0032821D1F7
:100DB00010E01CB11E480068006C206000202880F4
:100DC00024E01CB11A480068006C206046F2A910AB
:100DD00028801BE00CB10020206047F2D920288039
:100DE00014E01CB112480068006C206045F6C25047
:100DF00028800BE046F62E60288000BF00BF5046DA
:100E0000FFF70CFA00BF00BF002035E700BF376ACC
:100E100000BF00BF5046FFF701FA00BF00BF3846D1
:100E20002AE700003800002053454D4172000020A1
:100E3000C80000202DE9FF4105460E46144635B98D
:100E400045F6C3502080002004B0BDE8F0814EB1CB
:100E5000B6F5007F07D0B6F5004F05D0B6F5024FC6
:100E600004D102E000BF00BF00BF04E045F62560EA
:100E700020800020E8E700BF11492868884204D09C
:100E800045F6C45020800020DEE700270D4800789A
:100E900000280BDD00200346024629468DE8C100EC
:100EA0000394074801F06AF90020CDE723463A464B
:100EB0003146284602F070F880464046C4E70000FC
:100EC00053454D413800002010B5044612480078C3
:100ED000E8B901F0FBFD1149087008460078104997
:100EE00008700E48007800EB40000E4951F82000D1
:100EF0000D490860084600680C4908600120064951
:100F00000870FFF7DBF943F69920208002E045F6F0
:100F10008A60208010BD000039000020670000209A
:100F200066000020F4160020CC000020C80000203D
:100F30002DE9F04107464FF0000800BF00BFFFF762
:100F400069F9804600BF00BF00203A4908603A496D
:100F500008803A4908803A4908603A4908603A49A5
:100F600008603A49088100BF00BF4046FFF756F9C4
:100F700000BF00BF00BF00BFFFF74CF9804600BFB5
:100F800000BF3348046800BF00BF4046FFF746F982
:100F900000BF00BF1DE000BF00BFFFF73BF9804668
:100FA00000BF00BF002044F8780F2063A061A0823A
:100FB000E0826062A0622062783C04F16406B08145
:100FC000D4F8B84000BF00BF4046FFF727F900BF84
:100FD00000BF002CDFD100BF00BFFFF71BF9804628
:100FE00000BF00BF1B48056800BF00BF4046FFF7B9
:100FF00015F900BF00BF12E000BF00BFFFF70AF9FC
:10100000804600BF00BF05F120060020B081AD6919
:1010100000BF00BF4046FFF701F900BF00BF002D31
:10102000EAD103F019F903F08DFB00203880BDE808
:10103000F08100004C0000204600002086000020C7
:1010400098000020AC000020B8000020E816002026
:10105000A00000206C000020F8B504460026694678
:10106000324800F0BDFCBDF8000018B1BDF800002A
:101070002080F8BD6A460021022000F011FDBDF875
:10108000000018B1BDF800002080F2E700BF00BFEB
:10109000FFF7C0F8064600BF00BF002024490860E3
:1010A00000BF00BF3046FFF7B9F800BF00BF002502
:1010B0002048006820490968884205D91D48006811
:1010C0001D490968B0FBF1F525B91A4800680A21E5
:1010D000B0FBF1F56A460021284600F0E1FC6946C4
:1010E000124800F063FABDF8000018B1BDF8000026
:1010F0002080BEE700BF00BFFFF78CF8064600BFA8
:1011000000BF00200D490860094800680C490860CC
:1011100001200C49087000BF00BF3046FFF77EF881
:1011200000BF00BF0020208000BFA2E7F41900200C
:1011300088000020004C0008E84B000898000020C0
:101140008C0000209400002010B50348006810B106
:1011500001480068804710BD280000202DE9FF4F9E
:1011600087B004469046DDE91BA5DDE91496179F7C
:101170000020039087480078002805DD47F24A10D8
:1011800028800BB0BDE8F08F1CB947F2AD10288065
:10119000F7E7B8F1000F03D147F24F102880F0E7CE
:1011A0001EB946F62F602880EBE77B48006887422F
:1011B00003D246F630602880E3E71698B84203D39E
:1011C00046F631602880DCE7B9F1200F03D346F200
:1011D00073202880D5E7B9F1000F06D16F4884420B
:1011E00003D046F273202880CBE7B9F11F0F06D158
:1011F0006B48844203D046F273202880C1E7204622
:1012000002F0F2F9002028800AF0010090B10AF003
:10121000020078B105960020069008E000210598AC
:1012200001600598001D05900698401C06900698E0
:10123000B842F3D3169806EB80000490CDE9007A0B
:1012400032464046049B0A9900F06AFB0590C4F8B8
:1012500028800A98E0620898206284F83790059800
:1012600020600498A06019986065199818B94D48D5
:101270000068A06501E01998A0651A986060666230
:10128000A763A4F83CA04FF0000B08E0002104F194
:101290007C0040F82B100BF1010000F0FF0BBBF1BC
:1012A000000FF3D004F16400189901F00BFA204606
:1012B00000F082F800BF00BF00BFFEF7ABFF039055
:1012C00000BF00BF38480078401C3749087000BF95
:1012D00000BF0398FEF7A2FF00BF00BF00BF94F855
:1012E000370001F013FC204601F02EFD204602F0ED
:1012F00031F92E480088401C2C4908802C48007881
:1013000001282DD000BF00BF00BFFEF783FF039070
:1013100000BF00BF24480078401E234908700846DB
:101320000078A0B923480088002809DD00BF00BF6D
:101330000398FEF773FF00BF00BF01F073FD0DE0DF
:1013400000BF00BF0398FEF769FF00BF06E000BFC3
:1013500000BF0398FEF762FF00BF00BF00BF10E7A9
:1013600000BF00BF00BFFEF755FF039000BF00BFE6
:101370000D480078401E0C49087000BF00BF03985C
:10138000FEF74CFF00BF00BF00BFFFF731FB00BFFF
:10139000F7E6000038000020FC4B0008281600206B
:1013A000681500207400002072000020A4000020B6
:1013B000390000204400002010B5044603480068AE
:1013C00018B1204601490968884710BD180000205F
:1013D00070B504460D46002667480078002803DDF6
:1013E00047F24E10288070BD6448844203D147F212
:1013F0004C102880F7E76248844203D147F24D1031
:101400002880F0E77CB900BF00BFFEF703FF064667
:1014100000BF00BF5B48046800BF00BF3046FEF756
:10142000FDFE00BF00BF00BF00BF00BFFEF7F2FE21
:10143000064600BF00BF54480078401C524908705F
:1014400000BF00BF3046FEF7E9FE00BF00BF00BF8F
:1014500094F8360008282DD2DFE800F004090E10B9
:10146000080A0F11204601F0AFFC54E053E000BF22
:10147000204602F0D5FE4EE000BF00BF00BF204670
:1014800002F0CEFE94F83400082810D2DFE800F015
:1014900004070508090A0B0600BF00BF08E000BFEB
:1014A00000BF00BF00BF204601F062FA00E000BFAD
:1014B00000BF30E000BF00BF00BFFEF7ABFE064636
:1014C00000BF00BF30480078401E2F490870084612
:1014D0000078A0B92D480088002809DD00BF00BFB2
:1014E0003046FEF79BFE00BF00BF01F09BFC0DE005
:1014F00000BF00BF3046FEF791FE00BF06E000BF10
:1015000000BF3046FEF78AFE00BF00BF00BF46F6B0
:101510002D60288067E700BF04F1640001F0B0F897
:10152000204600F037F8204602F02CF818480088D2
:10153000401E17490880204602F056F8FF2084F824
:10154000360000BF00BF00BFFEF764FE064600BFC6
:1015500000BF0D480078401E0B49087000BF00BF57
:101560003046FEF75BFE00BF00BF00BF00202880B2
:10157000FFF73EFA00BF36E738000020681500206C
:1015800028160020C800002072000020440000201F
:10159000A400002010B504460348006818B1204696
:1015A00001490968884710BD1C0000207FB504462A
:1015B0000D46002600BF00BFFEF72CFE064600BF0A
:1015C00000BF1CB11548006884420AD100BF00BFAB
:1015D0003046FEF723FE00BF00BF47F257102880B9
:1015E0007FBD00BF00BF3046FEF718FE00BF00BF42
:1015F0000B48007800280BDD002000900190034686
:1016000002462146CDE90205064800F0B7FDE7E7AE
:101610002946204602F05CF900BFE1E7C80000203F
:10162000380000205452455310B504460348006862
:1016300018B1204601490968884710BD20000020E4
:101640002DE9F04780460E4614461D464FF000092E
:101650007B480078002805DD46F2AE102880002087
:10166000BDE8F0871EB1B6F5004F02D100E000BF23
:1016700004E045F6256028800020F1E700BF0CB1AA
:101680000020206000BF00BFFEF7C4FD814600BF00
:1016900000BF6C480068406C98B36A480068406CB2
:1016A000401E68490968486466480068476C1CB178
:1016B00064480068006C206062480068006C40422A
:1016C00060490968C1F8A4005E480068D0F8A80025
:1016D0005C490968D1F8A410884207D259480068CB
:1016E000D0F8A40057490968C1F8A80000BF00BF9E
:1016F0004846FEF793FD00BF00BF00202880384613
:10170000AEE7FFE706F4004058B100BF00BF48460F
:10171000FEF784FD00BF00BF46F2B0102880002015
:101720009EE74948007800280BDD00BF00BF48460F
:10173000FEF774FD00BF00BF46F66350288000200E
:101740008EE700BF40480078401C3F49087000BF4A
:1017500000BF4846FEF762FD00BF00BF00BF434622
:1017600007220021084601F043F800BF00BF00BF78
:10177000FEF750FD814600BF00BF33480078401E91
:101780003149087000BF00BF4846FEF747FD00BF63
:1017900000BF00BFFFF72CF900BF00BFFEF73AFD06
:1017A000814600BF00BF2748006890F8350020B18F
:1017B000012824D0032832D12AE0ECB12148006866
:1017C000006C20601F480068006C40421D49096899
:1017D000C1F8A4001B480068D0F8A800194909689E
:1017E000D1F8A410884207D216480068D0F8A400A7
:1017F00014490968C1F8A8000020288013E01CB132
:1018000010480068006C206046F2A91028800AE0A9
:101810000CB10020206047F2D920288003E046F672
:101820002E60288000BF00BF06480068476C00BFDC
:1018300000BF4846FEF7F2FC00BF00BF38460FE786
:1018400038000020C8000020720000202DE9F04779
:1018500005460E4617461C464FF0000A2E480078F3
:10186000002804DD47F259102080BDE8F0871EB93A
:1018700046F2D5202080F8E71FB946F2D520208017
:10188000F3E700BF00BFFEF7C5FC824600BF00BF04
:101890000DB922480568286868B900BF00BF5046E6
:1018A000FEF7BCFC00BF00BF00203060386047F28C
:1018B00052102080D9E795F83C0000F0010068B98B
:1018C00000BF00BF5046FEF7A9FC00BF00BF0020CC
:1018D0003060386047F254102080C6E700BF00BF78
:1018E0005046FEF79BFC00BF00BF4FF00008D5F844
:1018F000249003E009F1040908F10108D9F8000077
:101900000028F7D0C6F80080A86BA0EB080038606C
:101910000020208000BFA8E738000020C800002079
:10192000F0B50446DDE9055602EB85004FF0807CFA
:10193000071F3846C7F800C0071F38463C60DFF86D
:101940009CC0071F3846C7F800C04FF0123C071F65
:101950003846C7F800C04FF0033C071F3846C7F8A9
:1019600000C04FF0023C071F3846C7F800C0071FF1
:1019700038463B60071F384639604FF0113C071F5F
:101980003846C7F800C04FF0103C071F3846C7F86C
:1019900000C04FF0093C071F3846C7F800C04FF0A1
:1019A000083C071F3846C7F800C04FF0073C071F28
:1019B0003846C7F800C04FF0063C071F3846C7F846
:1019C00000C04FF0053C071F3846C7F800C04FF075
:1019D000043C071F3846C7F800C0F0BD113A0008A4
:1019E0007FB505460C461248854203D147F25B108D
:1019F00020807FBD0F48854203D147F25C102080D4
:101A0000F7E70D48007800280BDD002000900190DA
:101A1000034602462946CDE90204084800F0AEFB21
:101A2000E7E72146284602F061FA00BFE1E700003F
:101A30006815002028160020380000205453555304
:101A400010B51448006810B112480068804700249F
:101A50001148006811490968884215D00E4800688D
:101A6000D0F89800201A0C490968C1F894000A4877
:101A70000068D0F89C0008490968D1F8941008441F
:101A800005490968C1F89C0004480068C0F89840FE
:101A900010BD00002C000020C8000020CC00002059
:101AA0002DE9F04105460E46144600273F480078D0
:101AB000002804DD47F275202080BDE8F0813C4815
:101AC0000078002803DD46F663502080F5E736B144
:101AD000022E05D0042E0AD0082E09D101E000BF45
:101AE00000BF1DB947F27E202080E6E704E003E056
:101AF00045F625602080E0E700BF00BF00BF00BFC3
:101B0000FEF788FB074600BF00BF29480078401C4D
:101B10002749087000BF00BF3846FEF77FFB00BFB3
:101B200000BF00BF01202349096881F83600234621
:101B3000324629461F48006802F094FA2088A8B16E
:101B400000BF00BF00BFFEF765FB074600BF00BF38
:101B500017480078401E1649087000BF00BF38467D
:101B6000FEF75CFB00BF00BF00BFA6E7114800689E
:101B700001F02AF900BF00BF00BFFEF74BFB07468C
:101B800000BF00BF0A480078401E0949087000BF26
:101B900000BF3846FEF742FB00BF00BF00BFFEF7A4
:101BA00027FF0020208000BF87E7000038000020CA
:101BB00072000020C800002010B586B000F01CF8AC
:101BC000002405A800210091CDE9011403900748E5
:101BD000007800EB4000064A02EB800100231A4621
:101BE000044800F0CBFA06B010BD000066000020EB
:101BF000F41600205449434B10B50348006810B157
:101C000001480068804710BD3000002010B5002456
:101C100000BF00BFFEF7FEFA044600BF00BF084841
:101C20000078401C0649087000BF00BF2046FEF740
:101C3000F5FA00BF00BFFFF7BFFFFEF767FE10BD5C
:101C40003800002001464A1E4FF0E0235A61084A3E
:101C5000106820F07F4000BF10601A46126942F001
:101C600005021A611A46126942F002021A617047AF
:101C700020ED00E0254A2649264A274A2749284AD6
:101C80002848294A294A2A4A2A4A2B482B482C48BC
:101C90002C4A2D482D4A2E482E4A2F482F4830488E
:101CA0003048314A314A324A3248334A334A34485A
:101CB000344835483548364836483748374A384A30
:101CC000384A394A39483A483A483B4A3B4A3C4AFA
:101CD0003C483D483D483E493E483F4A3F4A404ACD
:101CE000404A414A414A424A4248434A434A444898
:101CF0004448454A454A4648464A474A474848486C
:101D0000484800BF00BF00BF70470000444C0008B7
:101D1000AC4D0008454C0008464C0008484C0008F3
:101D20004C4C0008504C00084D4C0008784C000802
:101D3000794C00087A4C00087C4C00087E4C000866
:101D4000804C0008824C0008844C0008A44C000819
:101D5000A64C0008A84C0008AA4C0008AC4C00088F
:101D6000AE4C0008B04C0008DC4C0008DD4C00080C
:101D7000DE4C0008E04C0008E24C0008E34C000890
:101D8000E44C0008E64C0008E84C0008EA4C000867
:101D9000EC4C0008EE4C0008F04C0008204D000808
:101DA000214D0008224D0008234D0008244D000855
:101DB000264D0008284D0008504D0008514D0008E0
:101DC000524D0008534D0008544D0008564D000870
:101DD000584D00085C4D00085D4D00085E4D000840
:101DE0005F4D0008604D0008614D0008624D00081D
:101DF000634D0008644D0008664D0008674D0008FB
:101E0000684D00086A4D00086C4D00086D4D0008D3
:101E1000704D0008A44D0008A54D0008A64D00080F
:101E2000A84D0008AA4D00080021034A1160034A8A
:101E300011800180704700005000002054000020F5
:101E40002DE9F04F85B00446894692469B46DDF861
:101E500038800020009000BF00BFFEF7DBF9009043
:101E600000BF00BFBAF1000F0AD0BAF1010F0DD0C8
:101E7000BAF5004F05D06FF40040504460B906E059
:101E800000BF206A40EA0900206214E000BF206A17
:101E900020EA090020620EE000BF00BF0098FEF7B4
:101EA000BDF900BF00BF45F62560A8F8000000207E
:101EB00005B0BDE8F08F00BFC4F824B004F10800FD
:101EC00001900198008958B900BF00BF0098FEF743
:101ED000A5F900BF00BF0020A8F80000206AE7E7CE
:101EE00000BF61480078401C5F49087000BF00BF18
:101EF0000098FEF793F900BF00BF00BF0198076884
:101F0000BD687FE07868029095F8880000F00F00C7
:101F100003900398012821D002282ED0042802D053
:101F2000082836D10EE0206AD5F8801000EA0106B4
:101F3000D5F88000B04204D15A463146284600F018
:101F400097F859E0206AD5F8801000EA010626B11A
:101F50005A463146284600F08BF84DE0D5F880000F
:101F6000216A20EA0106D5F88000B04204D15A4621
:101F70003146284600F07CF83EE0D5F88000216A22
:101F800020EA010626B15A463146284600F070F88C
:101F900032E000BF00BF00BFFEF73CF9009000BF79
:101FA00000BF31480078401E2F490870084600786D
:101FB000A0B92E480088002809DD00BF00BF0098A6
:101FC000FEF72CF900BF00BF00F02CFF0DE000BFB2
:101FD00000BF0098FEF722F900BF06E000BF00BF77
:101FE0000098FEF71BF900BF00BF00BF43F6FF20BB
:101FF000A8F8000000205BE700BF029F0FB1BD689A
:1020000000E00025002D7FF47DAF00BF00BF00BFC2
:10201000FEF700F9009000BF00BF13480078401E93
:102020001149087000BF00BF0098FEF7F7F800BF25
:1020300000BF00BF0AF4004008B9FEF7D9FC00BF9A
:1020400000BFFEF7E7F8009000BF00BF206A0490D1
:1020500000BF00BF0098FEF7E1F800BF00BF0020FE
:10206000A8F80000049823E7720000204400002034
:1020700070B504460E46154634342665002060705F
:102080002070E560A078343C082816D2DFE800F024
:10209000040508090706101100BF00BF00BF0DE0CE
:1020A00000BF204601F006FC002084F8360005E061
:1020B00000BF042084F8360000E000BF00BF2046C7
:1020C00000F056FC70BD0000002400BF19E000BF06
:1020D00000BFFEF79FF8044600BF00BF0948006834
:1020E000401C0849086008480068401C0649086010
:1020F00000BF00BF2046FEF791F800BF00BFFEF70B
:1021000025FBE4E7340000208800002010B58AB0E9
:10211000044600200E4908600B2000210591CDE9FE
:102120000704069108460B4909680B4A12680B4BD5
:102130001B68CDE90132CDE903101F200023084AB6
:1021400008A100900C48FFF709F80AB010BD000084
:1021500034000020A84B0008A44B0008A04B000846
:10216000C920000875432F4F532D49494920496420
:102170006C65205461736B00681500202DE9F84FE1
:1021800004460D4616461F46DDE90BABDDF82890E8
:10219000DDF834800020009000BF00BFFEF73AF861
:1021A000009000BF00BF2B4800882B490988884257
:1021B0003EDA28480088401C2649088027480088C5
:1021C0000988884203DA2348008824490880244883
:1021D0000068046022480068856021480068C66085
:1021E0001F48006807821E480068C0F814901C4809
:1021F0000068A0F818A01A480068C0F81CB0184879
:102200000068406816490860012016490881164890
:1022100008604860002000F079FC1448007818B18C
:1022200012480078124908700020A8F8000008E061
:1022300010480088401C0F49088044F25360A8F8F9
:10224000000000BF00BF0098FDF7E8FF00BF00BF1F
:10225000BDE8F88F44000020B44B00084600002081
:102260003C000020F4160020281600206600002004
:1022700068000020480000203EB55848006800680B
:10228000574A811A904279D00FDC564908440028F9
:102290003ED055490844A8B154490844002860D0AC
:1022A0005349084400286AD13FE0524808440028B6
:1022B00050D051490844002862D0504908440028B1
:1022C000F1D110E002A8454D00902D68EB69434D17
:1022D0002D682A8B414D2D686969404D2D68A8688D
:1022E000FFF7AEFD78E002A93C480068C0693B4DAD
:1022F000CDE900012D682B8B384D2D682A8A374D8A
:102300002D68E968354D2D68A86800F02FFC63E062
:10231000324B1B68DA69314B1B68198B2F4B1B68DA
:10232000986802AB00F038FE56E002A92B4800681E
:10233000C0692A4DCDE900012D682B8B274D2D68F2
:102340002A8A264D2D68E968244D2D68A86801F079
:10235000ABF941E021490968886802A901F0B8FA9F
:102360003AE01E4B1B68DA691C4B1B68198B1B4B30
:102370001B68986802AB01F057FB2DE007E02AE0EC
:1023800016490968886802A901F0B0FD24E01C49DB
:10239000097801EB41011B4A02EB810000F070FD5E
:1023A0000E48006802AB0021C269174801F03CFBEF
:1023B00016480068401E154908600846006848B97C
:1023C000134800680860002402AB2246002111482F
:1023D00001F02AFB00E000BF00BF3EBD400000202E
:1023E0005449434BADBAB2BE0DF90BFAF2F8F7FF00
:1023F0000006F6FF00F7FDF700FFEFFF03FE0FFEFC
:1024000068000020F416002034190020C4000020C9
:10241000C0000020F4190020002700BF48E000267B
:1024200044E000BF00BFFDF7F5FE074600BF00BF58
:102430002048008888B900201F490881086048604A
:1024400000F076FB00BF00BF3846FDF7E7FE00BF97
:1024500000BFFEF7CDFA012628E000BF00BF3846D6
:10246000FDF7DCFE00BF00BF0025FFF705FF6C4253
:1024700012480068A04201D21048046000BF00BFAB
:10248000FDF7C8FE074600BF00BF0D480068406862
:102490000B49086007480088401E0649088000BFB5
:1024A00000BF3846FDF7BAFE00BF00BF002EB8D00F
:1024B000B5E7000044000020F41600204C00002086
:1024C00040000020F0B589B0054600203149088061
:1024D0003148006820B944F25260288009B0F0BD4C
:1024E0002E480088022803DA44F254602880F5E779
:1024F00000202B490860284804682646203600271B
:102500000CE0284820600020A060E060208260612C
:102510002083666020342036781C87B21F480088EC
:102520008742EEDB203C1C48066866601E48066059
:102530001E48066000201E4908801E4908801E486B
:10254000006818B944F255602880C7E71B48006846
:102550001B490968884203D244F256602880BDE7CF
:10256000032000210591CDE9070506911348006875
:10257000144A1268104B1B68CDE90301CDE9013202
:1025800000910B46104A11A11748FEF7E7FD00BF66
:10259000A4E7000048000020B04B0008B44B00083E
:1025A0004C0000204E4F4E453C00002040000020D3
:1025B0004400002046000020BC4B0008C44B00082B
:1025C000FC4B0008C04B00081924000875432F4F2E
:1025D000532D49494920495352205175657565204D
:1025E0005461736B00000000281600200021034A8C
:1025F0001160034A118001807047000058000020DC
:102600005C00002070B501461A4D2D681DB945F2D9
:102610001E750D8070BD184D2D881DB945F21D75B4
:102620000D80F7E7134D28682A681032124D2D8867
:102630006D1EACB2002308E00260002545600581F4
:10264000C560103010325D1CABB2A342F4DB002534
:10265000056045600581C560064D2D68074E3560F3
:10266000054D2D88B5800025F58035810D8000BF92
:10267000D0E70000E04B0008D84B0008E816002027
:1026800010B5014648894B89002B17DD0A680C4BB1
:102690001B6813600A4C4B6823602346DB884C8917
:1026A0001B1B074CE38023469B884C892344044C26
:1026B000A38000234B818B810B604B6010BD000019
:1026C000E81600200181002242818281026042607E
:1026D000704700002DE9F0410D46DDE90674B0F8C1
:1026E0000AC0B0F80880C44505DB46F2935CA4F844
:1026F00000C0BDE8F081DFF8DCC0BCF804C0BCF16C
:10270000000F04D145F21D7CA4F800C0F1E7DFF80A
:10271000C4C0DCF80010DFF8BC80D1F800C0C8F8F5
:1027200000C0C446BCF804C0ACF1010CA8F804C059
:10273000C446BCF806C00CF1010CA8F806C0C4469B
:10274000BCF808C0B8F80680C44507DADFF884C0D2
:10275000BCF806C0DFF87C80A8F808C0B0F80AC052
:10276000BCF1000F0AD1016041604FF0010CA0F8EC
:102770000AC04FF0000CC1F800C017E003F0100CC5
:10278000BCF1000F07D10668316001604FF0000C0A
:10279000C1F800C004E0D0F804C0C1F800C0416036
:1027A000B0F80AC00CF1010CA0F80AC0B0F80CC0D7
:1027B000B0F80A80C44503DAB0F80AC0A0F80CC02B
:1027C0004D600A81CF604FF0000CA4F800C000BF3C
:1027D0008FE70000E81600200021034A1160034A39
:1027E000118001807047000060000020640000201C
:1027F0002DE9F04105460C4616461F46154800686F
:1028000080F8346000201349096881F835003946A2
:102810001048006800F082FE6CB104F10808EC601A
:10282000012229460B48006800F016F82946404668
:1028300000F06BF806E0002006490968C8870549E2
:102840000968086303480168204600F019F8BDE8EC
:10285000F0810000C800002010B5C287016300238A
:102860000AE000244C600C600C614C610C83CC616C
:10287000886020315C1CA3B29342F2DB10BD0000E3
:1028800030B548B14568C1F8BC5000F10804226871
:1028900093681D6AC56113E091F83450022D02D08F
:1028A000072D08D103E007A5C1F8BC5007E007A534
:1028B000C1F8BC5003E008A5C1F8BC5000BF00BF80
:1028C00030BD00005461736B205100005461736B84
:1028D0002053656D000000002000000030B507A502
:1028E000C1F8BC5000F1080422681AB193681D6A4F
:1028F000C56101E001A5C56130BD000020000000F8
:1029000000210160416001817047F0B58E6896F842
:10291000375007893FB90127078100274F600F60B3
:102920000160416023E007897F1C0781026806E09F
:10293000946894F83770AF4200DD02E05268002AD4
:10294000F6D100BF32B900274F6043680B60596071
:1029500041600CE017682FB9116000270F604A60D2
:10296000016004E013680B604A6059601160F0BDBB
:102970002DE9F0410446256BE68F0AE0D5F80C807E
:1029800008F108072946384600F00AF82035701E7D
:1029900086B2002EF2DC0020E0872063BDE8F081E3
:1029A00010B50489012C03D100240460446011E0B7
:1029B0000C6824B94A680024146002600AE04C687C
:1029C00024B90B6800245C60436003E00B684A682C
:1029D0005A6013600489641E048100244C600C60FA
:1029E00010BD2DE9F84306460C4617469846089D4B
:1029F00094F83600082850D2DFE800F004050809F2
:102A000006072B2C00BF00BF00BF47E000BF94F8B3
:102A10003400032807D143463A4621463046009504
:102A200000F03FF803E0E765A4F86080256436B164
:102A30002046FFF79DFF21463046FFF74FFF204617
:102A400000F038FF00203434A070607004F83409BE
:102A500024E000BF94F83400032807D143463A46E7
:102A600021463046009500F01CF803E0E765A4F825
:102A700060802564204601F0D3FB36B12046FFF785
:102A800077FF21463046FFF729FF04203434A07039
:102A90000020607004F8340900E000BF00BFBDE80A
:102AA000F883F0B50446059E086BCD8F0AE0C76831
:102AB000A74204D1046142610383C66104E020306F
:102AC0006F1EBDB2002DF2DC00BFF0BD70B5002559
:102AD000074C03E005F12000C5B2241D2068002842
:102AE000F8D02068FDF7A1FB2844C5B2284670BD88
:102AF00014000020002004E00021034A42F82010C6
:102B0000401C0028F8D070471400002030B542095E
:102B100000F01F030121C3F11F04A140034C54F82E
:102B200022400C43014D45F8224030BD14000020E6
:102B300030B5420900F01F030121C3F11F04A14079
:102B4000034C54F822408C43014D45F8224030BDDF
:102B5000140000200021034A1160034A1180018003
:102B6000704700006C000020700000202DE9F04F3D
:102B700085B007468A4693461C460020029000BF57
:102B800000BF00BFFDF746FB029000BF00BF4848F2
:102B90000078401C4649087000BF00BF0298FDF74E
:102BA0003DFB00BF00BF00BF07F1080630890028C9
:102BB00042D104F0100010B94FF0000801E04FF0CE
:102BC0001008DDE90E0143465A46CDE900015146A1
:102BD00007F12000FFF77EFD00BF00BF00BFFDF73B
:102BE00019FB029000BF00BF31480078401E3049F9
:102BF000087008460078A0B92E480088002809DD32
:102C000000BF00BF0298FDF709FB00BF00BF00F046
:102C100009F90DE000BF00BF0298FDF7FFFA00BF01
:102C200006E000BF00BF0298FDF7F8FA00BF00BF42
:102C300000BF05B0BDE8F08F04F4007008B135891D
:102C400000E00125D6F8009011E0D9F808000390C3
:102C5000D9F8040004900E985B465246009038461E
:102C60000399FFF7BEFEDDF81090681E85B2002DB7
:102C7000EBD100BF00BF00BFFDF7CCFA029000BF50
:102C800000BF0B480078401E0949087000BF00BF14
:102C90000298FDF7C3FA00BF00BF00BF04F4004074
:102CA00008B9FDF7A5FE00210F98018000BFC0E71D
:102CB000720000204400002000210AE001EB4102E4
:102CC000054B03EB820000220281026042604A1C35
:102CD000D1B22029F2D37047F416002010B5044673
:102CE00094F83700FFF712FF94F837000549097888
:102CF000884203D1204600F027F802E0204600F089
:102D000003F810BD6600002010B590F8373003EBD3
:102D100043030C4C04EB83010B893BB901230B816A
:102D20000023C36003610860486009E00B895B1CF5
:102D30000B810B68C360002303610A68106108609F
:102D400010BD0000F416002010B590F8373003EBEA
:102D500043030B4C04EB83010B893BB901230B812B
:102D60000023C36003610860486008E00B895B1CB6
:102D70000B810023C3604A680261D060486010BDC7
:102D8000F416002010B501460C8924B1012C03D0A3
:102D9000022C0CD101E000BF14E008684A6802610F
:102DA0000024C4601461D0600A6048600AE00868CA
:102DB0004A68C36800241C61C4600261D0600B6073
:102DC000486000BF00BF10BD2DE9F041054695F8F1
:102DD000370000EB4000124901EB80042F69EE68D8
:102DE00087B946B9002020812060606095F83700DF
:102DF000FFF79EFE0EE02089401E208100203061FA
:102E0000266007E02089401E2081FE600EB96760C1
:102E100000E0376100202861E860BDE8F081000033
:102E2000F416002010B5002400BFFDF7F3F90446A6
:102E300000BF00200D4908700D480E490860084683
:102E40000068D0F89000401C0968C1F890000A485A
:102E50000068401C084908604FF08050074908602E
:102E600000BF2046FDF7DAF900BF10BD6700002063
:102E700028160020CC0000209C00002004ED00E07B
:102E800070B5054600262E480078012800D070BD98
:102E900000BF00BFFDF7BEF9064600BF00BF2C68AB
:102EA0003CB900BF00BF3046FDF7B8F900BF00BF16
:102EB000EDE72448844207D100BF00BF3046FDF74C
:102EC000ADF900BF00BFE2E7A06D10B1A06D401EDC
:102ED000A065A06D38B100BF00BF3046FDF79EF978
:102EE00000BF00BFD3E72889022807DA00BF00BF70
:102EF0003046FDF793F900BF00BFC8E712480078DD
:102F0000002807DD00BF00BF3046FDF787F900BF8E
:102F100000BFBCE72846FFF735FF2C68606D18B985
:102F20000A480068A06501E0606DA06500BF00BFB1
:102F30003046FDF773F900BF00BF00BFA7E70000F0
:102F40007800002068150020720000207400002026
:102F500009A1C161002141610849096811B9002135
:102F6000816105E005490968816104490968486192
:102F70000249086070470000200000007C0000202B
:102F80000021034A1160034A11800180704700004C
:102F90007C000020800000202DE9FF5F0446884669
:102FA00091461D460020019000BF00BFFDF732F999
:102FB000019000BF00BF04F10807388900284FD1F5
:102FC0000420012804D0022814D0042834D123E09E
:102FD000206AFF280DD100BF00BF0198FDF71EF940
:102FE00000BF00BF46F6C5502880002004B0BDE8F1
:102FF000F09F22E04FF6FF71206A88420BD100BF9C
:1030000000BF0198FDF70AF900BF00BF46F6C550A2
:1030100028800020EAE710E0206A401C58B900BF71
:1030200000BF0198FDF7FAF800BF00BF46F6C55093
:1030300028800020DAE700E000BF00BF206A401CC3
:103040002062D4F820A0C4F8249000BF00BF0198EB
:10305000FDF7E4F800BF00BF002028805046C5E718
:1030600000BF25480078401C2349087000BF00BFFE
:103070000198FDF7D3F800BF00BF00BF08F400704F
:1030800008B13E8900E00126D7F800B011E0DBF876
:1030900008000290DBF80400039000231A46CDF8E4
:1030A000009020460299FFF79CFCDDF80CB0701EE2
:1030B00086B2002EEBD1D4F820A000BF00BF00BF25
:1030C000FDF7A8F8019000BF00BF0B480078401E34
:1030D0000949087000BF00BF0198FDF79FF800BFC5
:1030E00000BF00BF08F4004008B9FDF781FC0020D4
:1030F000288050467AE700007200002086B0002049
:10310000009000BF06E0C1490968480001AA0021FB
:10311000FEF7C6FCBE4800780128F4D101A8FDF7EF
:1031200007FF0027BB480068B8490968884205D9ED
:10313000B8480068B5490968B0FBF1F727B9B54848
:1031400000680A21B0FBF1F75FE14FF0000A00BF11
:1031500000BFFDF75FF8009000BF00BFAE480068F9
:10316000AE4908600020AC49086000BF00BF00986D
:10317000FDF754F800BF00BFA9480068A7490968D7
:10318000884248D9A6480068A649884205D242F23A
:10319000107003900120029023E0A1480068A2492A
:1031A000884205D24FF47A7003900A20029018E00A
:1031B0009B4800689D49884203D264200390029096
:1031C0000FE0974800689A49884205D20A20039088
:1031D0004FF47A70029004E00120039042F21070E4
:1031E00002908F4801680298B1FBF0F98B4903986F
:1031F00009684843B0FBF9F042F21071081A8D4992
:1032000008808D4800880988884208DA8948008843
:103210008949088003E042F2107086490880FDF772
:1032200093FF002500BF00BFFCF7F4FF009000BF34
:1032300000BF8248046800BF00BF0098FCF7EEFFA3
:1032400000BF00BF5AE000BF00BF00BFFCF7E2FFB5
:10325000009000BF00BF7A480078401C7849087091
:1032600000BF00BF0098FCF7D9FF00BF00BF00BF40
:1032700054F89C0F6060002044F89C0900BF00BF18
:1032800000BFFCF7C7FF009000BF00BF6C4800788C
:10329000401E6B49087008460078A0B9694800884C
:1032A000002809DD00BF00BF0098FCF7B7FF00BF92
:1032B00000BFFFF7B7FD0DE000BF00BF0098FCF7AF
:1032C000ADFF00BF06E000BF00BF0098FCF7A6FFFF
:1032D00000BF00BF00BFD4F8A000054400BF00BF7E
:1032E000FCF798FF009000BF00BFD4F8B84000BFC3
:1032F00000BF0098FCF792FF00BF00BF002CA2D1D6
:1033000045B34848854205D242F2107005904FF00F
:10331000010B1BE04448854205D24FF47A700590BA
:103320004FF00A0B12E04148854203D26420059019
:1033300083460BE03E48854204D20A2005904FF4B4
:103340007A7B03E00120059042F2107BB5FBFBF095
:10335000049003E0002005900120049000BF00BF0E
:10336000FCF758FF009000BF00BF3448046800BF5E
:1033700000BF0098FCF752FF00BF00BF2BE0D4F85D
:10338000A000059948430499B0FBF1F086B242F2DF
:103390001070864200D90646A4F88C60B4F88E00FE
:1033A000B04201DAA4F88E6001AB04F1AC02111D49
:1033B0002046FEF74BFA00BF00BFFCF72BFF009042
:1033C00000BF00BFD4F8B84000BF00BF0098FCF7B2
:1033D00025FF00BF00BF002CD1D11B480078012879
:1033E00005D100201849087001A8FDF7A1FDCAF118
:1033F000000816480068404502D21448C0F8008012
:1034000001AA00213846FEF74BFB9EE6E84B000878
:1034100094000020004C000888000020900000204C
:103420008C000020801A060000093D00005A62024C
:103430000084D7178400002086000020A000002010
:10344000720000204400002082000020980000202C
:1034500010B58AB0044600201F4908601F49086063
:103460001F4908601F4908701F4908701F480068FD
:1034700020B946F62B6020800AB010BD1C480068B9
:103480001C490968884203D246F62C602080F3E785
:10349000194800781F2803D346F62A602080EBE7FE
:1034A000032000210591CDE9070406910846104943
:1034B0000968124A12680D4B1B68CDE90132CDE94B
:1034C00003100D48007800230D4A0EA10090124809
:1034D000FDF744FE00BFCFE78800002090000020E9
:1034E0008C0000209400002082000020EC4B00089B
:1034F000F44B0008FC4B0008E44B0008F04B0008BC
:10350000FD30000875432F4F532D4949492053740E
:103510006174205461736B007418002038B5044640
:103520000D4685B16B4602222946204600F09AFDE1
:10353000BDF8000018B9032084F8360006E0022028
:1035400084F8360002E0022084F836002046FFF7B7
:103550003BFC38BD0021C0F8B4100949096819B90D
:103560000021C0F8B81007E005490968C0F8B81094
:1035700003490968C1F8B4000149086070470000B8
:10358000A0000020D0F8B420D0F8B8104AB90D4BF4
:10359000196011B10023C1F8B4300023C0F8B8306D
:1035A0000FE029B90023C2F8B830C0F8B43008E001
:1035B000C2F8B810C1F8B4200023C0F8B830C0F881
:1035C000B4307047A00000200021044A1160044A72
:1035D0001180044A1160018070470000A0000020A3
:1035E000A40000209C00002070B50446002020604C
:1035F000A0606060E06020616061A061E06127A080
:10360000206200206062A062E0622063E0872064A4
:10361000E065A4F86000002104F16400FFF752F8AF
:10362000002044F8740F6060E060A0822061743C68
:10363000002506E0002104F17C0040F82510681CFC
:10364000C5B2002DF6D000203434206120676067B9
:10365000606084F85600E067A06720814FF000406A
:1036600060610020A061E06120626062A4F85800FF
:10367000A4F85A00E065206600266666A066207001
:103680006070A0702020E0700020C4F88000C4F8B2
:10369000840004A0C4F88800343C70BD3F546173BA
:1036A0006B000000200000002DE9FC4704460F4697
:1036B00090469946DDE90A654FF0000A00BF00BF59
:1036C00000BFFCF7A7FD824600BF00BF7648007828
:1036D000401C7549087000BF00BF5046FCF79EFDB6
:1036E00000BF00BF00BF0CB97048046800202880EC
:1036F00094F8360008287DD2DFE800F004053E3F4C
:103700000607404100BF00BF00BF4B464246394656
:1037100004F16400CDE90065FEF7DCFF00BF00BFE7
:1037200000BFFCF777FD824600BF00BF5E4800780F
:10373000401E5D49087008460078A0B95C480088C2
:10374000002809DD00BF00BF5046FCF767FD00BF41
:1037500000BFFFF767FB0DE000BF00BF5046FCF75E
:103760005DFD00BF06E000BF00BF5046FCF756FD00
:1037700000BF00BF00BF93E000BF00BF00BF94F8D0
:103780003400022821D143463A46214600200096C3
:10379000FFF727F900BF00BF00BFFCF73BFD8246E3
:1037A00000BF00BF40480078401E3F49087000BF7E
:1037B00000BF5046FCF732FD00BF00BF00BF09F458
:1037C000004090BBFDF714F938E04B4642463946BD
:1037D00004F16400CDE90065FEF77CFF00BF00BF87
:1037E00000BFFCF717FD824600BF00BF2E480078DF
:1037F000401E00E023E02C49087008460078A8B974
:103800002B480088002809DD00BF00BF5046FCF7A8
:1038100005FD00BF00BFFFF705FB0EE000BF00BFC6
:103820005046FCF7FBFC00BF07E007E000BF00BF0D
:103830005046FCF7F3FC00BF00BF00BF30E000BF04
:1038400000BF00BFFCF7E6FC824600BF00BF164881
:103850000078401E1449087008460078A0B9144842
:103860000088002809DD00BF00BF5046FCF7D6FCE9
:1038700000BF00BFFFF7D6FA0DE000BF00BF504603
:10388000FCF7CCFC00BF06E000BF00BF5046FCF7D1
:10389000C5FC00BF00BF00BF46F62D60288000BFFA
:1038A00000BFBDE8FC87000072000020C8000020B7
:1038B0004400002010B50446204600F0B1FC94F806
:1038C000360000F0040010B92046FFF707FA10BDDB
:1038D00070B504460D46002600BF00BFFCF79AFCF9
:1038E000064600BF00BF0020288094F83600082854
:1038F0007BD2DFE800F0040506071243556700BFDE
:1039000000BF00BF00BF00BF3046FCF787FC00BF10
:1039100000BF47F25310288072E000BF3B48007898
:10392000401C3A49087000BF00BF3046FCF776FCE7
:1039300000BF00BF00BF14F88A0F401E207014F8AB
:103940008A0928B9002084F836002046FFF7B2FF24
:1039500000BF00BF00BFFCF75DFC064600BF00BF14
:103960002A480078401E2949087000BF00BF304631
:10397000FCF754FC00BF00BF00BF41E014F88A0F01
:10398000401E207014F88A0910B9012084F836000E
:1039900000BF00BF3046FCF741FC00BF00BF2FE076
:1039A00014F88A0F401E207014F88A0910B90220FA
:1039B00084F8360000BF00BF3046FCF72FFC00BF84
:1039C00000BF1DE014F88A0F401E207014F88A0909
:1039D00010B9032084F8360000BF00BF3046FCF762
:1039E0001DFC00BF00BF0BE0FFE700BF00BF30467B
:1039F000FCF714FC00BF00BF46F62D60288070BDA8
:103A000000BFFCF7F5FF00BFF9E7000072000020DF
:103A100008B504480068FDF707FE69460020FDF779
:103A2000D7FC08BDC80000202DE9F84304468846AD
:103A300017461D464FF0000900BF00BF00BFFCF74E
:103A4000E9FB814600BF00BFFE480078401CFD49ED
:103A5000087000BF00BF4846FCF7E0FB00BF00BF96
:103A600000BF0CB9F848046827640020288094F847
:103A70003600082871D2DFE800F00405EBEC0607F9
:103A8000EDEE00BF00BF00BF0420012804D00228D3
:103A900039D004286FD170E0606CFF2832D100BFAC
:103AA00000BF00BFFCF7B6FB814600BF00BFE54882
:103AB0000078401EE349087008460078A0B9E34842
:103AC0000088002809DD00BF00BF4846FCF7A6FBC0
:103AD00000BF00BFFFF7A6F90DE000BF00BF4846DA
:103AE000FCF79CFB00BF06E000BF00BF4846FCF7A8
:103AF00095FB00BF00BF00BF46F6C55028800020E0
:103B0000BDE8F88371E04FF6FF71606C884233D1F5
:103B100000BF00BF00BFFCF77DFB814600BF00BFB8
:103B2000C8480078401EC749087008460078A8B900
:103B3000C6480088002809DD00BF00BF4846FCF7E2
:103B40006DFB00BF00BFFFF76DF90EE000BF00BFC7
:103B50004846FCF763FB00BF07E08DE100BF00BFF4
:103B60004846FCF75BFB00BF00BF00BF46F6C550F0
:103B700028800020C4E737E037E0606C401C88BB39
:103B800000BF00BF00BFFCF745FB814600BF00BF80
:103B9000AC480078401EAB49087008460078A0B9D0
:103BA000AA480088002809DD00BF00BF4846FCF78E
:103BB00035FB00BF00BFFFF735F90DE000BF00BFC8
:103BC0004846FCF72BFB00BF06E000BF00BF48469D
:103BD000FCF724FB00BF00BF00BF46F6C55028809D
:103BE00000208DE7FFE700E000BF00BF606C401CD5
:103BF0006064666C00BF00BF00BFFCF70BFB814632
:103C000000BF00BF8F480078401E8E4908700846EC
:103C10000078A0B98D480088002809DD00BF00BFEA
:103C20004846FCF7FBFA00BF00BFFFF7FBF80DE0CA
:103C300000BF00BF4846FCF7F1FA00BF06E000BF36
:103C400000BF4846FCF7EAFA00BF00BF00BF45E1ED
:103C500000BF00BF00BF94F83400072823D1002321
:103C60001A46214618460097FEF7BBFE666C00BF59
:103C700000BF00BFFCF7CEFA814600BF00BF71480D
:103C80000078401E6F49087000BF00BF4846FCF72F
:103C9000C5FA00BF00BF00BF08F40040002801D1F2
:103CA000FCF7A6FEE7E00420012804D0022838D063
:103CB00004286ED16EE0606CFF2831D100BF00BFD8
:103CC00000BFFCF7A7FA814600BF00BF5D4800783F
:103CD000401E5C49087008460078A0B95B4800881F
:103CE000002809DD00BF00BF4846FCF797FA00BF77
:103CF00000BFFFF797F80DE000BF00BF4846FCF794
:103D00008DFA00BF06E000BF00BF4846FCF786FA08
:103D100000BF00BF00BF46F6C55028800020EFE678
:103D200070E04FF6FF71606C884231D100BF00BF78
:103D300000BFFCF76FFA814600BF00BF4148007822
:103D4000401E4049087008460078A0B93F480088E6
:103D5000002809DD00BF00BF4846FCF75FFA00BF3E
:103D600000BFFFF75FF80DE000BF00BF4846FCF75B
:103D700055FA00BF06E000BF00BF4846FCF74EFA08
:103D800000BF00BF00BF46F6C55028800020B7E640
:103D900038E036E0606C401C88BB00BF00BF00BF4D
:103DA000FCF738FA814600BF00BF26480078401E65
:103DB0002449087008460078A0B9244800880028E3
:103DC00009DD00BF00BF4846FCF728FA00BF00BF6E
:103DD000FFF728F80DE000BF00BF4846FCF71EFAC9
:103DE00000BF06E000BF00BF4846FCF717FA00BF5F
:103DF00000BF00BF46F6C5502880002080E6FFE7E0
:103E000000E000BF00BF606C401C6064666C00BFD7
:103E100000BF00BFFCF7FEF9814600BF00BF0948A4
:103E20000078401E0749087008460078D8B907484E
:103E30000088002810DD00BF00BF4846FCF7EEF9FF
:103E400000BF05E072000020C800002044000020F0
:103E500000BFFEF7E7FF0DE000BF00BF4846FCF7DC
:103E6000DDF900BF06E000BF00BF4846FCF7D6F909
:103E700000BF00BF00BF31E000BF00BF00BFFCF7C4
:103E8000C9F9814600BF00BF16480078401E154999
:103E9000087008460078A0B913480088002809DD9A
:103EA00000BF00BF4846FCF7B9F900BF00BFFEF7EE
:103EB000B9FF0DE000BF00BF4846FCF7AFF900BFF7
:103EC00006E000BF00BF4846FCF7A8F900BF00BFEE
:103ED00000BF46F62D602880002600BF00BF304698
:103EE0000EE60000720000204400002070B5044679
:103EF0000D46002600BF00BFFCF78CF9064600BF48
:103F000000BF0CB94B4804684A48006884420ED18F
:103F10004948007800280ADD00BF00BF3046FCF7A2
:103F20007DF900BF00BF46F66350288070BD0020B9
:103F3000288094F8360008286CD2DFE800F00431BD
:103F40003F4D5B5C5D5E00BF3B480078401C3A49DA
:103F5000087000BF00BF3046FCF760F900BF00BF2B
:103F600000BF042084F83600012084F88A0020462F
:103F7000FEF72AFF00BF00BF00BFFCF74BF9064663
:103F800000BF00BF2C480078401E2B49087000BFBE
:103F900000BF3046FCF742F900BF00BF00BF44E05D
:103FA000052084F83600012084F88A0000BF00BF95
:103FB0003046FCF733F900BF00BF36E0062084F836
:103FC0003600012084F88A0000BF00BF3046FCF7AD
:103FD00025F900BF00BF28E0072084F83600012043
:103FE00084F88A0000BF00BF3046FCF717F900BF15
:103FF00000BF1AE000BF00BF00BF94F88A00401C59
:1040000084F88A0000BF00BF3046FCF707F900BF04
:1040100000BF0AE000BF00BF3046FCF7FFF800BF5A
:1040200000BF46F62D60288080E700BFFCF7E0FC6B
:1040300000BF7BE7C800002072000020002108E0DC
:10404000064A02EBC100002202608280C2804A1C44
:1040500091B2034A12889142F2DB70475812002055
:10406000184C00082DE9F04F0C4616461D46042E4C
:104070001ED1DFF8A091D9F80090A4EB0909A9F1AD
:10408000010313F5803F0DD94FF00009C0F84C90A3
:10409000C0F85090C0F81C9047F27E29A5F8009017
:1040A000BDE8F08FC46403F10109C0F850903FE00F
:1040B00084B3082E25D1D0F8489009EB0407DFF827
:1040C0005491D9F80090A7EB0909A9F10103A34283
:1040D00001D2C76406E0DFF83C91D9F80090A14412
:1040E000C0F84C90DFF82CA1D0F84C90DAF800A082
:1040F000A9EB0A09C0F85090D0F84C90C0F848904D
:1041000016E0DFF81091D9F80090A144C0F84C9067
:1041100004650DE0FFE74FF00009C0F84C90C0F8CF
:104120005090C0F81C9047F27E29A5F80090B7E7A0
:10413000DFF8E4A0BAF800A0D0F84C90B9FBFAFB85
:104140000AFB1B991FFA89F8DFF8D09009EBC80227
:10415000B2F80490B9F1000F0BD14FF00009C0F88C
:104160001490C0F8189010604FF00109A2F8049064
:104170003EE0116834E0DFF89CA0D1F84C90DAF80A
:1041800000A0A9EB0A09C1F85090D0F85090D1F8DE
:1041900050A0D1450ED9D1F81490B9F1000F01D03B
:1041A00049691DE04FF00009C0F814908161486131
:1041B000002115E0D1F81890B9F1000F07D14FF0A8
:1041C0000009C0F8189041618861106007E0D1F8DB
:1041D00018C0C0F818C04161CCF8140088610021F3
:1041E0000029C8D1B2F8049009F10109A2F804909D
:1041F000B2F80690B2F804A0D14503DAB2F8049000
:10420000A2F80690C2614FF00009A5F8009000BF27
:1042100046E70000A8000020184C000858120020B3
:1042200010B5C269BAB1002404651468844205D18E
:104230004169116039B100248C6104E081694369EE
:104240004B6103B19961002444618461C461C46419
:104250009488641E948010BD002006E0054A02EB9D
:10426000C0010022CA80421C90B2034A12889042C8
:10427000F4DB704758120020184C00082DE9F05F5D
:104280004FF0000B00BF00BF00BFFBF7C3FF83462A
:1042900000BF00BF6E480078401C6D49087000BF29
:1042A00000BF5846FBF7BAFF00BF00BF00BF4FF08A
:1042B000000A68480068401C6649086008460068B3
:1042C00065490988B0FBF1F201FB12001FFA80F981
:1042D000624800EBC9073C6800267EE0002C7BD0DA
:1042E000D4F8148094F83600082871D2DFE800F082
:1042F0000408051B063B074E00BF00BF00BF68E077
:104300005449E06C0968401A20655249E06C09681C
:10431000884206D1002084F836002046FFF7CAFA0A
:1043200000E0012655E04B49E06C0968401A206521
:104330004849E06C0968884213D10020E065A4F880
:10434000600020642046FEF713FB2046FFF7B2FA18
:1043500000203434A07003206070002004F8340979
:1043600000E0012635E03B49E06C0968401A206511
:104370003849E06C0968884206D1042084F8360088
:104380002046FFF74DFF00E0012622E03149E06CB6
:104390000968401A20652F49E06C0968884215D1E8
:1043A0000020E065A4F8600020642046FEF7E0FAF3
:1043B0002046FFF735FF04203434A07003206070DE
:1043C000002004F8340902E006E001E0012600E0E4
:1043D00000BF00BF444600E00126002E3FF47EAF40
:1043E000CAF100051E480068A84201D21C480560B9
:1043F00000BF00BF00BFFBF70DFF834600BF00BF3B
:1044000013480078401E1249087008460078A0B989
:1044100014480088002809DD00BF00BF5846FBF79C
:10442000FDFE00BF00BFFEF7FDFC0DE000BF00BFBA
:104430005846FBF7F3FE00BF06E000BF00BF58463A
:10444000FBF7ECFE00BF00BF00BFBDE8F09F00001F
:1044500072000020A8000020184C0008581200200C
:10446000AC000020440000201CB500BF0EE001ABF2
:104470006A4600210846FDF7E3F8BDF8040028B9B4
:1044800003480078012801D1FFF7F8FEEFE70000AC
:104490003900002010B58AB0044600201D4908608C
:1044A0001D490860FFF7CAFD1C48006820B947F2A3
:1044B000122020800AB010BD194800681949096807
:1044C000884203D247F213202080F3E71648007891
:1044D0001F2803D347F211202080EBE70B20002197
:1044E00005910A46CDE9070406910D4800680F4979
:1044F00009680A4B1B68CDE90131CDE903020A487E
:10450000007800230A4A0BA100900F48FCF726FE12
:1045100000BFCFE7A8000020AC000020084C000836
:10452000104C0008FC4B0008044C00080C4C000820
:104530006944000875432F4F532D49494920546958
:10454000636B205461736B003419002070B58AB01E
:1045500004460020314908603148006840B13148C4
:1045600000682F490968B0FBF1F02F49086006E0A8
:104570002C4800680A21B0FBF1F02B4908602A485A
:1045800000682A4908600020294908602949086014
:10459000002508E0284800EBC5060020B080F08028
:1045A0003060681C85B2254800888542F2DB2448CB
:1045B000006820B947F2473020800AB070BD21481A
:1045C000006821490968884203D247F248302080B8
:1045D000F3E71E4800781F2803D347F246302080B7
:1045E000EBE70B2000210591CDE907040691084671
:1045F00014490968164A1268114B1B68CDE901324B
:10460000CDE90310114800780023124A12A100904E
:104610001748FCF7A3FD00BFCFE70000B000002063
:10462000244C0008004C0008C0000020C4000020FA
:10463000BC000020B8000020E0140020384C000826
:10464000284C0008304C0008FC4B0008204C0008A7
:104650002C4C00086947000875432F4F532D4949DA
:10466000492054696D6572205461736B000000002D
:10467000F4190020F0B50C46022680F82A60012CBF
:1046800005D12D4F466A3F683E4486610CE0066ABC
:104690002EB9294F466A3F683E44866104E0264FA2
:1046A000066A3F683E448661244F3F888669B6FBB0
:1046B000F7FC07FB1C66B5B2214E06EBC502166877
:1046C00036B90026066146611060012696802CE00E
:1046D000194F86693F68F61BC661116820E0164FC6
:1046E0008E693F68F61BCE61C669CF69BE4209D9A3
:1046F0000E690EB1096913E0002606614161086187
:1047000000210DE04E692EB9002646610161486125
:10471000106004E04B694361016118614861002148
:104720000029DCD19688761C9680D6889788BE4270
:1047300001DA9688D680F0BDBC000020384C000815
:10474000E0140020002006E0054A02EBC001002230
:10475000CA80421C90B2034A12889042F4DB704730
:10476000E0140020384C00081CB500BF4FE001AB3E
:104770006A4600210846FCF763FF01A8FCF78CF9A4
:104780004FF0000A22480068401C21490860084692
:10479000006820490988B0FBF1F201FB12001FFA02
:1047A00080F91D4800EBC9073C68D34621E0F4B10D
:1047B000D4F810801649A0690968884214D12046AF
:1047C00000F02EF8208D022804D101212046FFF7A9
:1047D00051FF02E0032084F82A00A56815B12046A5
:1047E000E168A847444604E04FF0010B01E04FF0B8
:1047F000010BBBF1000FDAD0CAF1000601A8FCF7EB
:1048000083F906480068B04201D204480660AEE76A
:10481000BC000020384C0008E0140020B800002044
:10482000F0B5114E36888569B5FBF6F706FB1755CE
:10483000ACB20E4D05EBC4021568854205D1016985
:10484000116039B100254D6104E0416903690B61D4
:1048500003B15961012580F82A50002505614561A1
:1048600095886D1E9580F0BD384C0008E01400203E
:1048700029B1064A92690243044B9A6104E0034A53
:1048800092698243014B9A61704700000010024018
:1048900030B500210022002400232D4D6D6805F065
:1048A0000C0121B1042905D0082923D105E0294DA7
:1048B000056022E0274D05601FE0254D6D6805F479
:1048C0007012234D6D6805F48034022505EB924289
:1048D0001CB9214D554305600BE01D4D6D6805F475
:1048E00000351DB11C4D5543056002E0194D55437F
:1048F000056002E0174D056000BF00BF144D6D68F4
:1049000005F0F0010909154D6B5C0568DD40456057
:104910000F4D6D6805F4E061090A104D6B5C456848
:10492000DD4085600A4D6D6805F46051C90A0B4D84
:104930006B5C4568DD40C560054D6D6805F4404120
:10494000890B074D6B5CC568B5FBF3F5056130BDA0
:104950000010024000127A0000093D000000002013
:1049600010000020704710B500F002F810BD0000E4
:104970000CB50020019000903348006840F480306E
:104980003149086000BF3048006800F400300090F2
:104990000198401C0190009818B90198B0F5A06FDB
:1049A000F1D12948006800F4003010B101200090D6
:1049B00001E0002000900098012843D123480068BE
:1049C00040F01000214908600846006820F003000C
:1049D00008600846006840F0020008601A48406815
:1049E000194948600846406848600846406840F4F5
:1049F000806048600846406820F47C1048600846A3
:104A0000406840F4E81048600846006840F0807054
:104A1000086000BF0C48006800F000700028F9D062
:104A20000948406820F0030007494860084640688C
:104A300040F00200486000BF0348406800F00C00EE
:104A40000828F9D10CBD00000010024000200240EF
:104A500010B51348006840F001001149086008468D
:104A60004068104908400E494860084600680E49F1
:104A700008400B4908600846006820F48020086060
:104A80000846406820F4FE0048604FF41F0088602C
:104A9000FFF769FF4FF000600449086010BD000097
:104AA000001002400000FFF8FFFFF6FE08ED00E0F6
:104AB00000BFFEE708B518E020210C48FBF7B6FD63
:104AC0006A4600214FF47A70FCF7EAFF202107487C
:104AD000FBF7AEFD6A4600214FF47A70FCF7E0FF69
:104AE0006A4600210248FCF7A5F9E5E7000C014001
:104AF000B41A00201CB51BE001A800231A46194671
:104B000000900C48FCF7A6F820210B48FBF78EFD1F
:104B100001AA00214FF4FA70FCF7C2FF20210648D9
:104B2000FBF786FD01AA00214FF4FA70FCF7B8FFED
:104B3000E2E70000B41A00200018014000B58BB075
:104B4000FBF77AFD0AA8FBF70BFE0AA80321002257
:104B50000592CDE906210890052080210C22094B01
:104B6000CDE90132CDE9031002200023064A07A156
:104B700000900A48FCF7F2FA0AA8FCF7A5F9002011
:104B80000BB000BD1C1D0020F10300084170702017
:104B90005461736B2053746172740000DC1A00203E
:104BA000D80000200C00000080000000000200007F
:104BB000D80200200A000000400100001804002074
:104BC0000C00000080000000000200001806002019
:104BD00080000000000200006400000040060000A9
:104BE000180800200B0000000A000000580E0020EA
:104BF0000C000000800000000002000040000000E7
:104C0000E80300000A000000581000200C0000001B
:104C10008000000000020000110000008800000079
:104C20000B0000000A000000E01200200C00000051
:104C30008000000000020000110000008800000059
:104C400090140000010101007856341201010000A7
:104C50000000000000000000000000000000000054
:104C60000000000000000000000000000000000044
:104C70000000000000000000010101002800040005
:104C80002000010000000000000000000000000003
:104C90000000000000000000000000000000000014
:104CA0000000000001002000010010000C001000B6
:104CB00000000000000000000000000000000000F4
:104CC00000000000000000000000000000000000E4
:104CD00000000000000000000000000001010100D1
:104CE0002C00010120000C00200020000400040022
:104CF00000000000000000000000000000000000B4
:104D000000000000000000000000000000000000A3
:104D10000000000000000000000000000000000093
:104D2000010101013000010000000000000000004E
:104D30000000000000000000000000000000000073
:104D40000000000000000000000000000000000063
:104D50000101010128000C00800100000401010193
:104D60000101010101000101C00008000101000072
:104D70000000000000000000000000000000000033
:104D80000000000000000000000000000000000023
:104D90000000000000000000000000000000000013
:104DA000000000000101340008005D76F2050000FB
:104DB000D04D000800000020D80000006C01000861
:104DC000A84E0008D80000200093000088010008C9
:104DD00000000000010203040102030406070809A1
:104DE00002040608000000000000000000000000AF
:104DF00000000000000000000000000000000000B3
:104E000000000000000000000000000000000000A2
:104E10000000000000000000000000000000000092
:104E20000000000000000000000000000000000082
:104E30000000000000000000000000000000000072
:104E40000000000000000000000000000000000062
:104E50000000000000000000000000000000000052
:104E60000000000000000000000000000000000042
:104E70000000000000000000000000000000000032
:104E80000000000000000000000000000000000022
:104E90000000000000000000000000000000000012
:084EA00000000000000000000A
:0400000508000131BD
:00000001FF
