:020000040800F2
:10000000C82F0020CD01000841050008ED040008BC
:100010003D050008C9030008AD1E000800000000EF
:10002000000000000000000000000000611D00084A
:10003000CD03000800000000570200081514000856
:10004000E7010008E7010008E7010008E7010008F0
:10005000E7010008E7010008E7010008E7010008E0
:10006000E7010008E7010008E7010008E7010008D0
:10007000E7010008E7010008E7010008E7010008C0
:10008000E7010008E7010008E7010008E7010008B0
:10009000E7010008E7010008E7010008E7010008A0
:1000A000E7010008E7010008E7010008E701000890
:1000B000E7010008E7010008E7010008E701000880
:1000C000E7010008E7010008E7010008E701000870
:1000D000E7010008E7010008E7010008E701000860
:1000E000E7010008E7010008E7010008E701000850
:1000F000E7010008E7010008E7010008E701000840
:10010000E7010008E7010008E7010008E70100082F
:10011000E7010008E7010008E7010008E70100081F
:10012000E7010008E7010008E7010008E70100080F
:1001300000F002F800F03AF80AA090E8000C8244BF
:100140008344AAF10107DA4501D100F02FF8AFF29C
:10015000090EBAE80F0013F0010F18BFFB1A43F0A5
:1001600001031847581F0000781F0000103A24BFF1
:1001700078C878C1FAD8520724BF30C830C144BF0C
:1001800004680C607047000000230024002500264E
:10019000103A28BF78C1FBD8520728BF30C148BFEA
:1001A0000B6070471FB51FBD10B510BD00F089F87A
:1001B0001146FFF7F7FF01F0B3FE00F0A7F803B414
:1001C000FFF7F2FF03BC00F0AFF8000009488047DA
:1001D00009480047FEE7FEE7FEE7FEE7FEE7FEE729
:1001E000FEE7FEE7FEE7FEE704480549054A064B41
:1001F000704700004D1E000831010008C82900208A
:10020000C82F0020C82B0020C82B0020EFF310803F
:1002100072B6704780F3108870471F484FF0FF0197
:100220000170002080F309881C48016881F3088868
:100230001B48012101701B484FF08051016062B6DC
:10024000FEE718484FF080510160704715484FF0A5
:1002500080510160704772B6EFF3098028B12038F1
:1002600080E8F00F10490968086000B50F48804722
:100270005DF804EB0E480F490A7802700A480E49EF
:100280000A680260106890E8F00F203080F3098857
:100290004EF0040E62B6704722ED00E078000020B8
:1002A0003A00002004ED00E040000020F90F0008B3
:1002B0002F000020300000204800002070477047C9
:1002C0007047754600F02CF8AE4605006946534667
:1002D00020F00700854618B020B5FFF785FFBDE880
:1002E00020404FF000064FF000074FF000084FF09D
:1002F000000B21F00701AC46ACE8C009ACE8C0092E
:10030000ACE8C009ACE8C0098D46704710B504469A
:10031000AFF300802046BDE81040FFF750BF00005B
:10032000004870476429002001491820ABBEFEE751
:10033000260002007047000010B5002000F0AAFA65
:100340000149086010BD00008000002010B507239F
:10035000054A0021054800F0BBFB0623044A0021A2
:10036000044800F0B5FB10BD60280020B11E000855
:1003700060290020E51E000870B586B006460024FE
:1003800001A801F083FC4FF47A710298B0FBF1F5FB
:10039000284601F053F8FFF739FF044600F06CFBE4
:1003A000FFF7CAFFFFF7D2FF042000F0D1FD20467F
:1003B000FFF730FF06B070BD704770477047704759
:1003C000704770477047704700BFFEE770472DE9E0
:1003D000F0410246002500260020002300240027CB
:1003E00091F803C00CF00F0591F803C00CF0100C4D
:1003F000BCF1000F03D091F802C04CEA050591F85A
:1004000000C0BCF1000F31D0146800202BE04FF089
:10041000010C0CFA00F3B1F800C00CEA03069E428E
:1004200020D183004FF00F0C0CFA03F7BC4305FA00
:1004300003FC4CEA040491F803C0BCF1280F06D178
:100440004FF0010C0CFA00FCC2F814C00AE091F85D
:1004500003C0BCF1480F05D14FF0010C0CFA00FCB1
:10046000C2F810C0401C0828D1D31460B1F800C0F5
:10047000BCF1FF0F34DD546800202EE000F1080CC1
:100480004FF0010808FA0CF3B1F800C00CEA0306BB
:100490009E4221D183004FF00F0C0CFA03F7BC43AE
:1004A00005FA03FC4CEA040491F803C0BCF1280FE0
:1004B00005D100F1080C08FA0CF8C2F8148091F884
:1004C00003C0BCF1480F07D100F1080C4FF0010840
:1004D00008FA0CF8C2F81080401C0828CED35460EB
:1004E000BDE8F081416170470161704700BFFEE7E0
:1004F00008B50121482001F0B9FB2020ADF800002B
:1005000010208DF8030003208DF802006946094889
:10051000FFF75DFF20210748FFF7E6FF2020ADF839
:10052000000069460448FFF752FF20210248FFF708
:10053000DBFF08BD000C01400018014000BFFEE7D2
:10054000704700001D481E481E481F481F4820488D
:10055000204821482148224822482348234824484B
:10056000244825482548264826482748274828481B
:100570002848294829482A482A482B482B482C48EB
:100580002C482D482D482E482E482F482F483048BB
:10059000304831483148324832483348334834488B
:1005A000344835483548364836483748374838485B
:1005B00038483948394800BF7047000048200008D3
:1005C0004C20000852200008542000085020000849
:1005D00056200008582000085A2000085C20000817
:1005E0005E200008602000086220000864200008E7
:1005F00066200008682000086A2000086C200008B7
:100600006E20000870200008722000087420000886
:1006100076200008782000087A2000087C20000856
:100620007E20000880200008822000088420000826
:1006300086200008882000088A2000088C200008F6
:100640008E200008902000089220000894200008C6
:1006500096200008982000089A2000089C20000896
:100660009E200008A0200008A2200008A41E002050
:1006700024230020A6200008A8200008AA200008A3
:10068000AC200008AE200008B0200008B22000080E
:10069000B4200008B6200008A4200008B8200008F4
:1006A0002DE9F04105460E46144600271148007812
:1006B00018B112202070BDE8F0812878012808D0F8
:1006C000022807D0032802D0042804D100E000BF8C
:1006D00000BF00BF02E001202070ECE700BFFFF781
:1006E00095FD07466E613846FFF794FD00202070A7
:1006F00000BFE0E72D00002010B500F019F800F071
:10070000EBFF01F017F801F037F800F0B5FF00F04B
:1007100075FF01F0CBF801F0F5F801F06DF801F08C
:1007200093F800F03DFD00F01BF8FFF70BFF10BD44
:100730000748802102E0491E002204C00029FAD1A6
:10074000044A054B1A600022044B1A8070470000CF
:100750006423002060250020780000207C00002019
:100760007047000010B500241A480078012830D1E5
:10077000FFF74CFD04461848007820B11648007871
:10078000401E1549087014480078F8B913480078DD
:10079000E0B901F019F912481249097850F821001E
:1007A000114908600F4800781049097888420DD037
:1007B0000D480068C06B401C0B490968C8630C48B1
:1007C0000068401C0A490860FFF740FD2046FFF71B
:1007D00021FD10BD3A0000202D0000202E00002039
:1007E0003C15002030000020480000202F00002091
:1007F0001400002010B500240B480078012811D106
:10080000FFF704FD04460948007840B9084800781D
:10081000FF2804D206480078401C0549087020468D
:10082000FFF7F8FC10BD00003A0000202D0000206A
:100830002E00002010B5002413480078012821D193
:10084000FFF7E4FC044611480078C0B9104800786E
:1008500088B10F480078401E0D490870084600789E
:1008600028B92046FFF7D6FC01F074F80AE02046CC
:10087000FFF7D0FC06E02046FFF7CCFC02E0204664
:10088000FFF7C8FC10BD00003A0000202D0000203A
:100890002E00002070B5054600261048007808B1EB
:1008A000002070BDFFF7B2FC06460D4804680068E2
:1008B00020B10B4800684068094908603046FFF7DE
:1008C000A9FC4CB10320207025810020606005A0A8
:1008D0006061204600F084FE2046E2E72D00002003
:1008E000180000203F0000002DE9F04105460E46AB
:1008F000144600272878032803D001202070BDE883
:10090000F0813248007810B102202070F7E73048BB
:10091000007810B10D202070F1E7FFF777FC074653
:10092000288940B12889401E28813846FFF772FC8B
:1009300000202070E3E72748006890F8340040F07A
:1009400001002449096881F8340000202149096820
:1009500081F835001F4800680663284600F002FE53
:100960003846FFF757FC00F0F5FFFFF74FFC07464E
:100970001848006890F8350020B1012809D00228F5
:1009800006D102E0002020700BE00E20207008E06D
:1009900000BF29460F48006800F0B2FD0A20207011
:1009A00000BF00BF00200B49096881F834000949E5
:1009B000096881F8350007490968C861054909686F
:1009C00008623846FFF726FC00BF98E72D0000209C
:1009D0002E0000204000002070B50446002520783D
:1009E000032801D0012070BDFFF710FC0546A07A56
:1009F00060B1002301221946204600F039FD284647
:100A0000FFF708FC00F0A6FF0020ECE720894FF676
:100A1000FF71884207D22089401C20812846FFF7B9
:100A2000F9FB0020DFE72846FFF7F4FB3320DAE785
:100A300010B50B48007890B900F0C6FF094800785F
:100A40000949087009480749097850F82100084900
:100A500008600846006807490860FFF7DEFB10BD24
:100A60003A000020300000202F0000203C1500201C
:100A7000480000204000002010B50024022000F0B3
:100A8000BFFAFFF7C3FB044600200B49086020466D
:100A9000FFF7C0FB642000F0B3FAFFF7B7FB044692
:100AA000054800680549086001200549087020468E
:100AB000FFF7B0FB10BD00003C0000202400002028
:100AC0002C00002010B504462046FFF775FC10BD31
:100AD0002DE9FE4F06460F4690461C464FF0000992
:100AE000FFF794FB81461F48007828B14846FFF77E
:100AF00091FB3C20BDE8FE8F1B4850F8240060BBF2
:100B00000120194941F824004846FFF783FB0023E0
:100B100042463946304600F0CDF98246002000902A
:100B200001900346024651460290204600F062FFC3
:100B3000054635B90D48007801280CD100F00AFFB0
:100B400009E0FFF763FB81460020074941F82400D4
:100B50004846FFF75FFB2846CCE74846FFF75AFBBD
:100B60002820C7E72D0000203C1500203A00002077
:100B70002DE9F04F85B081468A4693461C46DDE953
:100B80000F78129D00200390FFF740FB039023484D
:100B9000007830B10398FFF73DFB3C2005B0BDE87D
:100BA000F08F1F4850F8240088BB01201C4941F8F1
:100BB00024000398FFF72EFB2A464146384601F0F1
:100BC00047F82B465A465146484600F073F90490C0
:100BD0001198CDE9008002953A4620460E9B049973
:100BE00000F008FF064636B90E48007801280CD1FF
:100BF00000F0B0FE09E0FFF709FB03900020084970
:100C000041F824000398FFF705FB3046C6E7FFE7ED
:100C10000398FFF7FFFA2820C0E700002D0000200E
:100C20003C1500203A00002010B504462046FFF78E
:100C3000C4FB10BD2DE9F041054600274A48007865
:100C400010B14020BDE8F0813F2D01D13E20F9E7F1
:100C5000FFF7DCFA0746FF2D03D14448006890F8FF
:100C60003650434850F8254024B93846FFF7D2FAA9
:100C70004320E7E7012C04D13846FFF7CBFA3D20AB
:100C8000E0E714F8380F3B49085C61788843217825
:100C9000384A505414F838091146085C30B994F8B1
:100CA0003A1035480078884333490870E06918B134
:100CB0002046E16900F024FC206A18B12046216A30
:100CC00000F033FCA66A16B1304600F0C3FC0020E9
:100CD000206384F8340084F8350028480078FF2821
:100CE00004D226480078401C244908703846FFF793
:100CF00091FA00F0BBFBFFF789FA07461F4800781E
:100D000020B11E480078401E1C490870204600F0A3
:100D100041F81B480078401E19490870002014490A
:100D200041F82500A06930B9002061698861154942
:100D30006069086005E0D4E905014861D4E905105F
:100D400088611148006860610F4804600FA0206549
:100D50003846FFF75FFA0E480078012801D100F00D
:100D6000F9FD00206EE700002D000020400000206B
:100D70003C15002032000020310000202E00002011
:100D80003B0000204C000020440000203F000000F9
:100D90003A00002010B504462046FFF70FFB10BDB7
:100DA00010B5FFF70CFB10BD2DE9F04106460F46CC
:100DB00014464FF000081548007818B11220207032
:100DC000BDE8F081FFF722FA8046FF2E03D11048DC
:100DD000006890F836600F4850F826502DB940460C
:100DE000FFF718FA43202070EAE7012D05D14046AD
:100DF000FFF710FA43202070E2E72F654046FFF727
:100E000009FA0020207000BFDAE700002D00002062
:100E1000400000203C15002010B504462046FFF796
:100E2000CFFA10BD10B5FFF7CCFA10BD2DE9F04791
:100E300007460D464FF0000A002028606860FFF763
:100E4000E5F98246FF2F03D11848006890F8367004
:100E5000174850F827402CB95046FFF7DBF94320DC
:100E6000BDE8F087012C04D15046FFF7D3F94320A9
:100E7000F6E7207C00F0010020B95046FFF7CAF9E0
:100E80004520EDE70026D4F80C90D4F808805046B1
:100E9000FFF7C0F900E0761C58F8041B0029FAD0CF
:100EA0002E60A9EB060068600020D9E74000002012
:100EB0003C15002070B5044610464FF08075056063
:100EC000051F28462C60214E051F28462E604FF036
:100ED0001236051F28462E604FF00336051F2846A0
:100EE0002E604FF00236051F28462E607610051F33
:100EF00028462E60051F284629604FF01136051F31
:100F000028462E604FF01036051F28462E604FF001
:100F10000936051F28462E604FF00836051F284663
:100F20002E604FF00736051F28462E604FF006361C
:100F3000051F28462E604FF00536051F28462E60F7
:100F40004FF00436051F28462E6070BD5D1B00085B
:100F50002DE9F04105464FF00008FFF757F98046AC
:100F6000FF2D05D12048006890F83650012608E092
:100F70001D48006890F83600A84201D1012600E023
:100F800000261A4850F825402CB94046FFF742F990
:100F90004820BDE8F081012C04D14046FFF73AF922
:100FA0004320F6E794F838701148C05D94F8391082
:100FB00088430F49C8550846C05D30B994F83A10C7
:100FC0000C48007888430B49087094F8340040F0CE
:100FD000080084F834004046FFF71CF9012E01D1C7
:100FE00000F0B8FC0020D4E7400000203C150020B1
:100FF000320000203100002010B5FFF7E3F910BDEA
:1010000070B5054600261748007800B170BD164837
:10101000007800B1FAE71DB3FFF7F8F80646134869
:10102000006890F838401248005D1049096891F84E
:10103000391088430E4908550846005D40B90B48F1
:10104000006890F83A100B48007888430949087006
:101050000648006805633046FFF7DCF800F07AFCCC
:1010600000BFD3E72D0000202E000020400000200C
:10107000320000203100002070B5002600F072F828
:10108000FFF7C4F8064631480068401C2F49086045
:101090003046FFF7BFF82E480078012853D12D487D
:1010A000007820B1012804D0022809D103E00125ED
:1010B0000BE0002509E0012501202649087004E025
:1010C000012500202349087000BF00BF05B970BD8D
:1010D0002148046833E0FFF799F80646206B50B3C7
:1010E000206B401E2063206B28BB94F8340000F076
:1010F000370040B114F8340F00F0C8002070012010
:101100006070343C02E0002084F8350094F834002C
:1011100000F0080078B93834A078104909780843FD
:101120000E49087020780E49085C6178084314F86D
:1011300038190B4A505464693046FFF76BF894F83D
:1011400036003F28C7D100BFC1E700006000002083
:101150003A000020500000204C0000203100002008
:101160003200002010B5FFF72EF907480088401C18
:101170000549088008460088642803DB00200880B1
:1011800000F004F810BD00007C00002010B50348FA
:101190000068FFF721FC0446204610BD70000020C7
:1011A000F8B54FF42071284800F076FB402127481D
:1011B00000F072FB002514E0681C86B205EB850088
:1011C000214901EBC00406EB860001EBC007642057
:1011D0002070002084F82500E7601DA02062681CB4
:1011E00085B20F2DE8D305EB8500174901EBC0044C
:1011F00064202070002084F82500E06014A02062A4
:101200000020144908601449088010201349088000
:101210000D48134908600120FFF73CFB11490860A5
:101220000020FFF737FB104908606A460FA10D4800
:101230000068FFF735FA6A4611A10B480068FFF70E
:101240002FFA00F027F8F8BDA41E00202423002068
:101250003F000000680000206600002064000020BD
:10126000740000206C0000207000002075432F4F98
:10127000532D494920546D724C6F636B0000000080
:1012800075432F4F532D494920546D725369676E32
:10129000616C000000B587B00320002180220A4B5A
:1012A000CDE90132CDE903104FF6FD703D23074A29
:1012B00000900748FFF75CFC06AA06A13D20FFF757
:1012C00073FD07B000BD0000242100202023002072
:1012D0005113000875432F4F532D494920546D7207
:1012E0000000000070B50B46032580F82550012B47
:1012F00005D1154EC5693668354445610CE08569F0
:101300002DB9114EC56936683544456104E00E4E6D
:101310008569366835444561057D05F007040B4D48
:1013200005EBC4010D682DB908600025C5600125D5
:101330008D8006E00A680860C26010618D886D1CAF
:101340008D800025056170BD6800002024230020E9
:1013500008B500BF00BF6A4600211A480068FFF7C1
:10136000C3FAFFF747FA18480068401C164908609E
:101370000846007800F00708144800EBC8073C68EE
:101380001AE0E668104960690968884213D120466E
:1013900000F01EF894F82400022804D10121204610
:1013A000FFF7A0FF02E0022084F82500656815B170
:1013B0002046A168A8473446002CE2D1FFF73AFA4C
:1013C000C9E70000700000206800002024230020EE
:1013D00030B5057D05F007040D4D05EBC4031D6810
:1013E000854205D1C168196039B100250D6104E05D
:1013F0000169C268CA6002B11161012580F82550F7
:101400000025C56005619D886D1E9D8030BD000072
:101410002423002010B5FEF7F9FE044606480078A4
:10142000401C054908702046FEF7F4FEFFF724FE35
:10143000FFF798F910BD00002D000020411E4FF06D
:10144000E0225161FF21084A11704FF0E021096943
:1014500041F005014FF0E02211611146096941F0A8
:10146000020111617047000023ED00E070470000A9
:101470002DE9F04F05460F4690469946A87A1C493B
:101480000E5C05F10B00805D11F800B00BEBC6009F
:1014900000F0FF0A174850F82A4000202434E0608A
:1014A0002760207C20EA0800207484F81190207CBA
:1014B000243C00F0080068B994F83A000E49097815
:1014C00008430D4908700D48805D94F839100843B1
:1014D0000A4988552946204600F012F8206A20B1B2
:1014E0002046216A00F021F8E5615046BDE8F08F02
:1014F000481F00083C150020310000203200002069
:1015000010B590F8382001F10B039B5C90F839403E
:10151000A34301F10B04A35423469B5C23B98B7AAC
:1015200090F83A40A3438B7210BDF0B5024612F812
:10153000384F95785678383A0B4618680FE000F126
:101540000B073F5DB74300F10B0C0CF804706746C6
:101550003F5D17B9877AAF4387721B1D1868002853
:10156000EDD1F0BD10B51B4A1268D061194A12685E
:1015700092F8383000F10B02D25C164B1B6893F8DE
:1015800039301A43134B1B6893F8384000F10B03B2
:101590001A55827A0F4B1B6893F83A301A438272BD
:1015A0000C4A126892F838100B4A525C094B1B68BF
:1015B00093F839309A43084B5A541A46525C42B950
:1015C000044A126892F83A30044A12789A43034B5C
:1015D0001A7010BD400000203200002031000020B1
:1015E000014600228A72002005E0002301F10B026F
:1015F0001354421CD0B20828F7D370472DE9F041AC
:101600005021114800F048F900250DE0681C86B211
:101610000D4800EB051400EB0617002020706760F2
:101620000AA0E060681C85B2042DEFD3064800EBE9
:10163000051400202070606004A0E06002480449A6
:101640000860BDE8F0810000EC1000203F000000C1
:101650001C00002030B501464A6808682AB9CC68E9
:10166000606028B10025456002E0106000B1426072
:101670008B6800259D6230BD70B541F2680113484A
:1016800000F00AF9002411E0601C85B204EB44006C
:101690000E4901EBC00305EB450001EBC00600203D
:1016A00018705E600AA05861601C84B2AE2CEBD347
:1016B00004EB4400054901EBC0030020187058609A
:1016C00003A0586108460349086070BD84000020EB
:1016D0003F0000001800002000200B4908600B4963
:1016E00008700B4908700B4908700B4908700B49CA
:1016F00008600B4908600B4908600B4908600B49FA
:1017000008700B4908707047600000202D00002011
:101710002E0000203B0000203A0000201400002092
:101720003C00002028000020240000202C00002085
:101730005C00002000210A4A1170002004E0002112
:10174000084A1154411CC8B20828F8D30021064A9F
:101750001170064A1170064A1160064A11607047FE
:1017600031000020320000202F0000203000002037
:10177000480000204000002070B54FF4F261194885
:1017800000F08AF84FF48071174800F085F80024C3
:1017900013E0601CC5B204EB440000EBC400114927
:1017A00001EBC00305EB450000EBC50001EBC006F3
:1017B0005E610EA01865601CC4B2152CE9D304EB61
:1017C000440000EBC400074901EBC003002058614E
:1017D00006A018650020064908600248054908600F
:1017E00070BD00003C1600203C1500203F000000AA
:1017F0004C0000204400002000B587B003200021E9
:1018000080220A4BCDE90132CDE903104FF6FF707B
:101810003F23074A00900748FFF7AAF906AA06A146
:101820003F20FFF7C1FA07B000BD00003C130020C5
:1018300038150020351B000875432F4F532D49499B
:101840002049646C6500000000B587B003200021CA
:1018500080220A4BCDE90132CDE903104FF6FE702C
:101860003E23074A00900748FFF782F906AA06A11F
:101870003E20FFF799FA07B000BD00003C110020A0
:1018800038130020751B000875432F4F532D49490D
:10189000205374617400000004E0002200F8012B62
:1018A0004A1E91B20029F8D17047000070B5782126
:1018B0001148FFF7F1FF00240EE004EB44000E494D
:1018C00001EBC005601C00EB400001EBC00068604C
:1018D0000AA06861601C84B2042CEED304EB4400BF
:1018E000054901EBC0050020686004A06861084656
:1018F0000349086070BD0000CC1D00203F000000BF
:10190000540000202DE9F04160211048FFF7C4FF8A
:1019100000240DE0601C86B204EB44000B4901EB8F
:10192000C00506EB460001EBC0072F60601C84B2C7
:10193000032CEFD304EB4400044901EBC005002065
:101940002860084602490860BDE8F081441E002076
:101950005800002010B50024FEF758FC0446134838
:101960000078F8B912480078E0B900F02DF8114875
:101970001149097850F82100104908600E48007894
:101980000F49097888420DD00C480068C06B401C94
:101990000A490968C8630B480068401C0949086087
:1019A000FEF74FFC2046FEF735FC10BD2D00002051
:1019B0002E0000203C1500203000002048000020B0
:1019C0002F000020140000200649074A1278885C86
:1019D0000649095C034A515C01EBC001044A1170DD
:1019E00070470000481F000831000020320000202E
:1019F000300000202DE9F84F05460F4690469946E5
:101A0000DDE90AAB00200090FEF700FC00904248A0
:101A10000468002C7BD01C3454F8080C3E49086044
:101A20000098FEF7F7FB44F81C7CA5760020207692
:101A30006076606144F818BC44F810AC44F8148C2B
:101A40000C9824F80C0C24F80A9C0020E077E8108D
:101A5000207705F00700E076217F01208840A077FD
:101A6000E17E012088406077002020606060E060B7
:101A7000A0602062A0626062E062206327A06063D1
:101A80001C3C002606E0002104F1540040F826101A
:101A9000701CC6B2012EF6DB2046FFF713F8FEF7E6
:101AA000B5FB00901E4840F825400098FEF7B2FBB9
:101AB0002046FFF7B9F8FEF7A9FB00901948006827
:101AC00060610020A0611748006810B115480068E7
:101AD0008461144804603834A078134909780843B5
:101AE0001149087020781149085C6178084314F89E
:101AF00038190E4A50540E480078401C0C490870A2
:101B00000098FEF787FB0020BDE8F88FFFE70098FC
:101B1000FEF780FB4220F7E7440000203F00000072
:101B20003C1500204C000020310000203200002035
:101B30003B000020002400BF00BFFEF767FB044607
:101B400005480068401C044908602046FEF762FB17
:101B5000FFF726F9F1E700003C00002010B504482B
:101B60000068FFF759F9FF20FFF764F810BD000087
:101B70004000002000BF00BF02E0C820FFF740FA8D
:101B80001F4800780028F8D01E4800686421B0FB88
:101B9000F1F01C4908600846006828B900201A497D
:101BA0000870FF20FFF7D4F9FEF730FB0446154814
:101BB000006864214843154908602046FEF72AFB67
:101BC00000BFFEF723FB0446104800681049086078
:101BD00000200E4908602046FEF71CFB0C480068F8
:101BE00008490968B0FBF1F0C0F1640006490870CB
:101BF000FFF718F900F00EF86420FFF701FAE0E7AC
:101C00002C00002024000020200000203C000020A8
:101C1000280000207CB5002514E069462846FFF71F
:101C200005F9064666B9094850F8254044B1012C2B
:101C300006D0D4E9020100EB8100A0640198E064C1
:101C4000681CC5B23F2DE8DD7CBD00003C150020BE
:101C500002F0010343B102F002032BB102E0491E7E
:101C6000002308C00029FAD17047000029B1064AB4
:101C700092690243044B9A6104E0034A92698243E9
:101C8000014B9A61704700000010024030B50021FE
:101C90000022002400232D4D6D6805F00C0121B1B8
:101CA000042905D0082923D105E0294D056022E04B
:101CB000274D05601FE0254D6D6805F47012234D1A
:101CC0006D6805F48034022505EB92421CB9214D64
:101CD000554305600BE01D4D6D6805F400351DB1E1
:101CE0001C4D5543056002E0194D5543056002E067
:101CF000174D056000BF00BF144D6D6805F0F00181
:101D00000909154D6B5C0568DD4045600F4D6D6838
:101D100005F4E061090A104D6B5C4568DD408560A3
:101D20000A4D6D6805F46051C90A0B4D6B5C45683E
:101D3000DD40C560054D6D6805F44041890B074DD8
:101D40006B5CC568B5FBF3F5056130BD0010024062
:101D500000127A0000093D00000000201000002061
:101D6000704710B500F002F810BD00000CB500205F
:101D7000019000903348006840F480303149086099
:101D800000BF3048006800F4003000900198401C0B
:101D90000190009818B90198B0F5A06FF1D12948C9
:101DA000006800F4003010B10120009001E0002034
:101DB00000900098012843D12348006840F01000AB
:101DC000214908600846006820F0030008600846C2
:101DD000006840F0020008601A48406819494860ED
:101DE0000846406848600846406840F480604860A3
:101DF0000846406820F47C1048600846406840F47B
:101E0000E81048600846006840F08070086000BF35
:101E10000C48006800F000700028F9D009484068BC
:101E200020F00300074948600846406840F002007F
:101E3000486000BF0348406800F00C000828F9D152
:101E40000CBD0000001002400020024010B51348F5
:101E5000006840F0010011490860084640681049D8
:101E600008400E494860084600680E4908400B4982
:101E700008600846006820F4802008600846406832
:101E800020F4FE0048604FF41F008860FFF769FFF0
:101E90004FF000600449086010BD000000100240CF
:101EA0000000FFF8FFFFF6FE08ED00E000BFFEE7D0
:101EB00013E020210948FEF715FB4FF47A70FFF775
:101EC0009FF820210548FEF70FFB4FF47A70FFF7CB
:101ED00097F803480068FEF77FFDEAE7000C014031
:101EE0008000002008B515E06A4600210A48006815
:101EF000FEF7FAFC20210948FEF7F4FA4FF4FA70D5
:101F0000FFF77EF820210548FEF7EEFA4FF4FA704D
:101F1000FFF776F8E8E70000800000200018014095
:101F200010B5FEF7E5FAFEF7E7FB0423044A0021AB
:101F30000448FEF7CDFDFEF77BFD002010BD00003C
:101F40006027002079030008000001000200010062
:101F50000300010002000100040001000200010072
:101F60000300010002000100050001000200010061
:101F70000300010002000100040001000200010052
:101F80000300010002000100060001000200010040
:101F90000300010002000100040001000200010032
:101FA0000300010002000100050001000200010021
:101FB0000300010002000100040001000200010012
:101FC00003000100020001000700010002000100FF
:101FD00003000100020001000400010002000100F2
:101FE00003000100020001000500010002000100E1
:101FF00003000100020001000400010002000100D2
:1020000003000100020001000600010002000100BF
:1020100003000100020001000400010002000100B1
:1020200003000100020001000500010002000100A0
:102030000300010002000100040001000200010091
:102040000300010002000100010000007856341274
:102050000100AF000100180068100100010010002D
:1020600014000200050001003F000100010005000E
:1020700001001800780001000400010004001800AD
:1020800008000100040001000100010080000100BF
:10209000160001000100800001000100400058000E
:1020A000E8030100177201001000010008000A0097
:1020B00028008002080040003A210000DC200008CF
:1020C00000000020840000006C010008602100086E
:1020D00084000020442F0000880100080000000058
:1020E00001020304010203040607080902040608AA
:1020F00000000000000000000000000000000000E0
:1021000000000000000000000000000000000000CF
:1021100000000000000000000000000000000000BF
:1021200000000000000000000000000000000000AF
:10213000000000000000000000000000000000009F
:10214000000000000000000000000000000000008F
:10215000000000000000000000000000000000007F
:0400000508000131BD
:00000001FF
